{
  "_format": "hh-sol-artifact-1",
  "contractName": "PNetworkHub",
  "sourceName": "contracts/core/PNetworkHub.sol",
  "abi": [
    {
      "inputs": [
        {
          "internalType": "address",
          "name": "factory_",
          "type": "address"
        },
        {
          "internalType": "uint32",
          "name": "baseChallengePeriodDuration_",
          "type": "uint32"
        },
        {
          "internalType": "address",
          "name": "epochsManager_",
          "type": "address"
        },
        {
          "internalType": "address",
          "name": "feesManager_",
          "type": "address"
        },
        {
          "internalType": "address",
          "name": "telepathyRouter",
          "type": "address"
        },
        {
          "internalType": "address",
          "name": "governanceMessageVerifier",
          "type": "address"
        },
        {
          "internalType": "address",
          "name": "slasher_",
          "type": "address"
        },
        {
          "internalType": "address",
          "name": "dandelionVoting_",
          "type": "address"
        },
        {
          "internalType": "uint256",
          "name": "lockedAmountChallengePeriod_",
          "type": "uint256"
        },
        {
          "internalType": "uint16",
          "name": "kChallengePeriod_",
          "type": "uint16"
        },
        {
          "internalType": "uint16",
          "name": "maxOperationsInQueue_",
          "type": "uint16"
        },
        {
          "internalType": "bytes4",
          "name": "interimChainNetworkId_",
          "type": "bytes4"
        },
        {
          "internalType": "uint256",
          "name": "lockedAmountOpenChallenge_",
          "type": "uint256"
        },
        {
          "internalType": "uint64",
          "name": "challengeDuration_",
          "type": "uint64"
        },
        {
          "internalType": "uint32",
          "name": "expectedSourceChainId",
          "type": "uint32"
        }
      ],
      "stateMutability": "nonpayable",
      "type": "constructor"
    },
    {
      "inputs": [
        {
          "components": [
            {
              "internalType": "bytes32",
              "name": "originBlockHash",
              "type": "bytes32"
            },
            {
              "internalType": "bytes32",
              "name": "originTransactionHash",
              "type": "bytes32"
            },
            {
              "internalType": "bytes32",
              "name": "optionsMask",
              "type": "bytes32"
            },
            {
              "internalType": "uint256",
              "name": "nonce",
              "type": "uint256"
            },
            {
              "internalType": "uint256",
              "name": "underlyingAssetDecimals",
              "type": "uint256"
            },
            {
              "internalType": "uint256",
              "name": "assetAmount",
              "type": "uint256"
            },
            {
              "internalType": "uint256",
              "name": "userDataProtocolFeeAssetAmount",
              "type": "uint256"
            },
            {
              "internalType": "uint256",
              "name": "networkFeeAssetAmount",
              "type": "uint256"
            },
            {
              "internalType": "uint256",
              "name": "forwardNetworkFeeAssetAmount",
              "type": "uint256"
            },
            {
              "internalType": "address",
              "name": "underlyingAssetTokenAddress",
              "type": "address"
            },
            {
              "internalType": "bytes4",
              "name": "originNetworkId",
              "type": "bytes4"
            },
            {
              "internalType": "bytes4",
              "name": "destinationNetworkId",
              "type": "bytes4"
            },
            {
              "internalType": "bytes4",
              "name": "forwardDestinationNetworkId",
              "type": "bytes4"
            },
            {
              "internalType": "bytes4",
              "name": "underlyingAssetNetworkId",
              "type": "bytes4"
            },
            {
              "internalType": "string",
              "name": "originAccount",
              "type": "string"
            },
            {
              "internalType": "string",
              "name": "destinationAccount",
              "type": "string"
            },
            {
              "internalType": "string",
              "name": "underlyingAssetName",
              "type": "string"
            },
            {
              "internalType": "string",
              "name": "underlyingAssetSymbol",
              "type": "string"
            },
            {
              "internalType": "bytes",
              "name": "userData",
              "type": "bytes"
            },
            {
              "internalType": "bool",
              "name": "isForProtocol",
              "type": "bool"
            }
          ],
          "internalType": "struct IPNetworkHub.Operation",
          "name": "operation",
          "type": "tuple"
        },
        {
          "internalType": "address",
          "name": "actor",
          "type": "address"
        },
        {
          "internalType": "enum IPNetworkHub.ActorTypes",
          "name": "actorType",
          "type": "uint8"
        }
      ],
      "name": "ActorAlreadyCancelledOperation",
      "type": "error"
    },
    {
      "inputs": [],
      "name": "CallFailed",
      "type": "error"
    },
    {
      "inputs": [
        {
          "internalType": "uint64",
          "name": "challengeDuration",
          "type": "uint64"
        },
        {
          "internalType": "uint64",
          "name": "maxChallengePeriodDuration",
          "type": "uint64"
        }
      ],
      "name": "ChallengeDurationMustBeLessOrEqualThanMaxChallengePeriodDuration",
      "type": "error"
    },
    {
      "inputs": [],
      "name": "ChallengeDurationPassed",
      "type": "error"
    },
    {
      "inputs": [
        {
          "components": [
            {
              "internalType": "uint256",
              "name": "nonce",
              "type": "uint256"
            },
            {
              "internalType": "address",
              "name": "actor",
              "type": "address"
            },
            {
              "internalType": "address",
              "name": "challenger",
              "type": "address"
            },
            {
              "internalType": "enum IPNetworkHub.ActorTypes",
              "name": "actorType",
              "type": "uint8"
            },
            {
              "internalType": "uint64",
              "name": "timestamp",
              "type": "uint64"
            },
            {
              "internalType": "bytes4",
              "name": "networkId",
              "type": "bytes4"
            }
          ],
          "internalType": "struct IPNetworkHub.Challenge",
          "name": "challenge",
          "type": "tuple"
        }
      ],
      "name": "ChallengeNotFound",
      "type": "error"
    },
    {
      "inputs": [
        {
          "internalType": "uint64",
          "name": "startTimestamp",
          "type": "uint64"
        },
        {
          "internalType": "uint64",
          "name": "endTimestamp",
          "type": "uint64"
        }
      ],
      "name": "ChallengePeriodNotTerminated",
      "type": "error"
    },
    {
      "inputs": [
        {
          "internalType": "uint64",
          "name": "startTimestamp",
          "type": "uint64"
        },
        {
          "internalType": "uint64",
          "name": "endTimestamp",
          "type": "uint64"
        }
      ],
      "name": "ChallengePeriodTerminated",
      "type": "error"
    },
    {
      "inputs": [],
      "name": "Inactive",
      "type": "error"
    },
    {
      "inputs": [
        {
          "internalType": "address",
          "name": "actor",
          "type": "address"
        },
        {
          "internalType": "enum IPNetworkHub.ActorTypes",
          "name": "actorType",
          "type": "uint8"
        }
      ],
      "name": "InvalidActor",
      "type": "error"
    },
    {
      "inputs": [
        {
          "internalType": "enum IPNetworkHub.ActorStatus",
          "name": "status",
          "type": "uint8"
        },
        {
          "internalType": "enum IPNetworkHub.ActorStatus",
          "name": "expectedStatus",
          "type": "uint8"
        }
      ],
      "name": "InvalidActorStatus",
      "type": "error"
    },
    {
      "inputs": [
        {
          "internalType": "uint256",
          "name": "assetAmount",
          "type": "uint256"
        },
        {
          "internalType": "address",
          "name": "assetTokenAddress",
          "type": "address"
        }
      ],
      "name": "InvalidAssetParameters",
      "type": "error"
    },
    {
      "inputs": [
        {
          "internalType": "enum IPNetworkHub.ChallengeStatus",
          "name": "status",
          "type": "uint8"
        },
        {
          "internalType": "enum IPNetworkHub.ChallengeStatus",
          "name": "expectedStatus",
          "type": "uint8"
        }
      ],
      "name": "InvalidChallengeStatus",
      "type": "error"
    },
    {
      "inputs": [
        {
          "internalType": "uint16",
          "name": "epoch",
          "type": "uint16"
        }
      ],
      "name": "InvalidEpoch",
      "type": "error"
    },
    {
      "inputs": [
        {
          "internalType": "bytes",
          "name": "message",
          "type": "bytes"
        }
      ],
      "name": "InvalidGovernanceMessage",
      "type": "error"
    },
    {
      "inputs": [
        {
          "internalType": "address",
          "name": "governanceMessagerVerifier",
          "type": "address"
        },
        {
          "internalType": "address",
          "name": "expectedGovernanceMessageVerifier",
          "type": "address"
        }
      ],
      "name": "InvalidGovernanceMessageVerifier",
      "type": "error"
    },
    {
      "inputs": [
        {
          "internalType": "uint256",
          "name": "lockedAmountChallengePeriod",
          "type": "uint256"
        },
        {
          "internalType": "uint256",
          "name": "expectedLockedAmountChallengePeriod",
          "type": "uint256"
        }
      ],
      "name": "InvalidLockedAmountChallengePeriod",
      "type": "error"
    },
    {
      "inputs": [
        {
          "internalType": "uint256",
          "name": "lockedAmountStartChallenge",
          "type": "uint256"
        },
        {
          "internalType": "uint256",
          "name": "expectedLockedAmountStartChallenge",
          "type": "uint256"
        }
      ],
      "name": "InvalidLockedAmountStartChallenge",
      "type": "error"
    },
    {
      "inputs": [
        {
          "internalType": "bytes4",
          "name": "networkId",
          "type": "bytes4"
        },
        {
          "internalType": "bytes4",
          "name": "expectedNetworkId",
          "type": "bytes4"
        }
      ],
      "name": "InvalidNetwork",
      "type": "error"
    },
    {
      "inputs": [],
      "name": "InvalidNetworkFeeAssetAmount",
      "type": "error"
    },
    {
      "inputs": [
        {
          "internalType": "enum IPNetworkHub.OperationStatus",
          "name": "status",
          "type": "uint8"
        },
        {
          "internalType": "enum IPNetworkHub.OperationStatus",
          "name": "expectedStatus",
          "type": "uint8"
        }
      ],
      "name": "InvalidOperationStatus",
      "type": "error"
    },
    {
      "inputs": [],
      "name": "InvalidUserOperation",
      "type": "error"
    },
    {
      "inputs": [],
      "name": "LockDown",
      "type": "error"
    },
    {
      "inputs": [],
      "name": "MaxChallengeDurationNotPassed",
      "type": "error"
    },
    {
      "inputs": [],
      "name": "NearToEpochEnd",
      "type": "error"
    },
    {
      "inputs": [
        {
          "internalType": "address",
          "name": "addr",
          "type": "address"
        }
      ],
      "name": "NotContract",
      "type": "error"
    },
    {
      "inputs": [
        {
          "internalType": "address",
          "name": "dandelionVoting",
          "type": "address"
        },
        {
          "internalType": "address",
          "name": "expectedDandelionVoting",
          "type": "address"
        }
      ],
      "name": "NotDandelionVoting",
      "type": "error"
    },
    {
      "inputs": [
        {
          "internalType": "address",
          "name": "sender",
          "type": "address"
        },
        {
          "internalType": "address",
          "name": "router",
          "type": "address"
        }
      ],
      "name": "NotRouter",
      "type": "error"
    },
    {
      "inputs": [
        {
          "internalType": "address",
          "name": "pTokenAddress",
          "type": "address"
        }
      ],
      "name": "PTokenNotCreated",
      "type": "error"
    },
    {
      "inputs": [],
      "name": "QueueFull",
      "type": "error"
    },
    {
      "inputs": [
        {
          "internalType": "uint32",
          "name": "sourceChainId",
          "type": "uint32"
        },
        {
          "internalType": "uint32",
          "name": "expectedSourceChainId",
          "type": "uint32"
        }
      ],
      "name": "UnsupportedChainId",
      "type": "error"
    },
    {
      "anonymous": false,
      "inputs": [
        {
          "indexed": true,
          "internalType": "uint16",
          "name": "epoch",
          "type": "uint16"
        },
        {
          "indexed": true,
          "internalType": "address",
          "name": "actor",
          "type": "address"
        }
      ],
      "name": "ActorResumed",
      "type": "event"
    },
    {
      "anonymous": false,
      "inputs": [
        {
          "indexed": true,
          "internalType": "uint16",
          "name": "epoch",
          "type": "uint16"
        },
        {
          "indexed": true,
          "internalType": "address",
          "name": "actor",
          "type": "address"
        }
      ],
      "name": "ActorSlashed",
      "type": "event"
    },
    {
      "anonymous": false,
      "inputs": [
        {
          "components": [
            {
              "internalType": "uint256",
              "name": "nonce",
              "type": "uint256"
            },
            {
              "internalType": "address",
              "name": "actor",
              "type": "address"
            },
            {
              "internalType": "address",
              "name": "challenger",
              "type": "address"
            },
            {
              "internalType": "enum IPNetworkHub.ActorTypes",
              "name": "actorType",
              "type": "uint8"
            },
            {
              "internalType": "uint64",
              "name": "timestamp",
              "type": "uint64"
            },
            {
              "internalType": "bytes4",
              "name": "networkId",
              "type": "bytes4"
            }
          ],
          "indexed": false,
          "internalType": "struct IPNetworkHub.Challenge",
          "name": "challenge",
          "type": "tuple"
        }
      ],
      "name": "ChallengeCancelled",
      "type": "event"
    },
    {
      "anonymous": false,
      "inputs": [
        {
          "components": [
            {
              "internalType": "uint256",
              "name": "nonce",
              "type": "uint256"
            },
            {
              "internalType": "address",
              "name": "actor",
              "type": "address"
            },
            {
              "internalType": "address",
              "name": "challenger",
              "type": "address"
            },
            {
              "internalType": "enum IPNetworkHub.ActorTypes",
              "name": "actorType",
              "type": "uint8"
            },
            {
              "internalType": "uint64",
              "name": "timestamp",
              "type": "uint64"
            },
            {
              "internalType": "bytes4",
              "name": "networkId",
              "type": "bytes4"
            }
          ],
          "indexed": false,
          "internalType": "struct IPNetworkHub.Challenge",
          "name": "challenge",
          "type": "tuple"
        }
      ],
      "name": "ChallengePartiallyUnsolved",
      "type": "event"
    },
    {
      "anonymous": false,
      "inputs": [
        {
          "components": [
            {
              "internalType": "uint256",
              "name": "nonce",
              "type": "uint256"
            },
            {
              "internalType": "address",
              "name": "actor",
              "type": "address"
            },
            {
              "internalType": "address",
              "name": "challenger",
              "type": "address"
            },
            {
              "internalType": "enum IPNetworkHub.ActorTypes",
              "name": "actorType",
              "type": "uint8"
            },
            {
              "internalType": "uint64",
              "name": "timestamp",
              "type": "uint64"
            },
            {
              "internalType": "bytes4",
              "name": "networkId",
              "type": "bytes4"
            }
          ],
          "indexed": false,
          "internalType": "struct IPNetworkHub.Challenge",
          "name": "challenge",
          "type": "tuple"
        }
      ],
      "name": "ChallengePending",
      "type": "event"
    },
    {
      "anonymous": false,
      "inputs": [
        {
          "components": [
            {
              "internalType": "uint256",
              "name": "nonce",
              "type": "uint256"
            },
            {
              "internalType": "address",
              "name": "actor",
              "type": "address"
            },
            {
              "internalType": "address",
              "name": "challenger",
              "type": "address"
            },
            {
              "internalType": "enum IPNetworkHub.ActorTypes",
              "name": "actorType",
              "type": "uint8"
            },
            {
              "internalType": "uint64",
              "name": "timestamp",
              "type": "uint64"
            },
            {
              "internalType": "bytes4",
              "name": "networkId",
              "type": "bytes4"
            }
          ],
          "indexed": false,
          "internalType": "struct IPNetworkHub.Challenge",
          "name": "challenge",
          "type": "tuple"
        }
      ],
      "name": "ChallengeSolved",
      "type": "event"
    },
    {
      "anonymous": false,
      "inputs": [
        {
          "components": [
            {
              "internalType": "uint256",
              "name": "nonce",
              "type": "uint256"
            },
            {
              "internalType": "address",
              "name": "actor",
              "type": "address"
            },
            {
              "internalType": "address",
              "name": "challenger",
              "type": "address"
            },
            {
              "internalType": "enum IPNetworkHub.ActorTypes",
              "name": "actorType",
              "type": "uint8"
            },
            {
              "internalType": "uint64",
              "name": "timestamp",
              "type": "uint64"
            },
            {
              "internalType": "bytes4",
              "name": "networkId",
              "type": "bytes4"
            }
          ],
          "indexed": false,
          "internalType": "struct IPNetworkHub.Challenge",
          "name": "challenge",
          "type": "tuple"
        }
      ],
      "name": "ChallengeUnsolved",
      "type": "event"
    },
    {
      "anonymous": false,
      "inputs": [
        {
          "components": [
            {
              "internalType": "bytes32",
              "name": "originBlockHash",
              "type": "bytes32"
            },
            {
              "internalType": "bytes32",
              "name": "originTransactionHash",
              "type": "bytes32"
            },
            {
              "internalType": "bytes32",
              "name": "optionsMask",
              "type": "bytes32"
            },
            {
              "internalType": "uint256",
              "name": "nonce",
              "type": "uint256"
            },
            {
              "internalType": "uint256",
              "name": "underlyingAssetDecimals",
              "type": "uint256"
            },
            {
              "internalType": "uint256",
              "name": "assetAmount",
              "type": "uint256"
            },
            {
              "internalType": "uint256",
              "name": "userDataProtocolFeeAssetAmount",
              "type": "uint256"
            },
            {
              "internalType": "uint256",
              "name": "networkFeeAssetAmount",
              "type": "uint256"
            },
            {
              "internalType": "uint256",
              "name": "forwardNetworkFeeAssetAmount",
              "type": "uint256"
            },
            {
              "internalType": "address",
              "name": "underlyingAssetTokenAddress",
              "type": "address"
            },
            {
              "internalType": "bytes4",
              "name": "originNetworkId",
              "type": "bytes4"
            },
            {
              "internalType": "bytes4",
              "name": "destinationNetworkId",
              "type": "bytes4"
            },
            {
              "internalType": "bytes4",
              "name": "forwardDestinationNetworkId",
              "type": "bytes4"
            },
            {
              "internalType": "bytes4",
              "name": "underlyingAssetNetworkId",
              "type": "bytes4"
            },
            {
              "internalType": "string",
              "name": "originAccount",
              "type": "string"
            },
            {
              "internalType": "string",
              "name": "destinationAccount",
              "type": "string"
            },
            {
              "internalType": "string",
              "name": "underlyingAssetName",
              "type": "string"
            },
            {
              "internalType": "string",
              "name": "underlyingAssetSymbol",
              "type": "string"
            },
            {
              "internalType": "bytes",
              "name": "userData",
              "type": "bytes"
            },
            {
              "internalType": "bool",
              "name": "isForProtocol",
              "type": "bool"
            }
          ],
          "indexed": false,
          "internalType": "struct IPNetworkHub.Operation",
          "name": "operation",
          "type": "tuple"
        }
      ],
      "name": "OperationCancelFinalized",
      "type": "event"
    },
    {
      "anonymous": false,
      "inputs": [
        {
          "components": [
            {
              "internalType": "bytes32",
              "name": "originBlockHash",
              "type": "bytes32"
            },
            {
              "internalType": "bytes32",
              "name": "originTransactionHash",
              "type": "bytes32"
            },
            {
              "internalType": "bytes32",
              "name": "optionsMask",
              "type": "bytes32"
            },
            {
              "internalType": "uint256",
              "name": "nonce",
              "type": "uint256"
            },
            {
              "internalType": "uint256",
              "name": "underlyingAssetDecimals",
              "type": "uint256"
            },
            {
              "internalType": "uint256",
              "name": "assetAmount",
              "type": "uint256"
            },
            {
              "internalType": "uint256",
              "name": "userDataProtocolFeeAssetAmount",
              "type": "uint256"
            },
            {
              "internalType": "uint256",
              "name": "networkFeeAssetAmount",
              "type": "uint256"
            },
            {
              "internalType": "uint256",
              "name": "forwardNetworkFeeAssetAmount",
              "type": "uint256"
            },
            {
              "internalType": "address",
              "name": "underlyingAssetTokenAddress",
              "type": "address"
            },
            {
              "internalType": "bytes4",
              "name": "originNetworkId",
              "type": "bytes4"
            },
            {
              "internalType": "bytes4",
              "name": "destinationNetworkId",
              "type": "bytes4"
            },
            {
              "internalType": "bytes4",
              "name": "forwardDestinationNetworkId",
              "type": "bytes4"
            },
            {
              "internalType": "bytes4",
              "name": "underlyingAssetNetworkId",
              "type": "bytes4"
            },
            {
              "internalType": "string",
              "name": "originAccount",
              "type": "string"
            },
            {
              "internalType": "string",
              "name": "destinationAccount",
              "type": "string"
            },
            {
              "internalType": "string",
              "name": "underlyingAssetName",
              "type": "string"
            },
            {
              "internalType": "string",
              "name": "underlyingAssetSymbol",
              "type": "string"
            },
            {
              "internalType": "bytes",
              "name": "userData",
              "type": "bytes"
            },
            {
              "internalType": "bool",
              "name": "isForProtocol",
              "type": "bool"
            }
          ],
          "indexed": false,
          "internalType": "struct IPNetworkHub.Operation",
          "name": "operation",
          "type": "tuple"
        },
        {
          "indexed": true,
          "internalType": "address",
          "name": "actor",
          "type": "address"
        },
        {
          "indexed": true,
          "internalType": "enum IPNetworkHub.ActorTypes",
          "name": "actorType",
          "type": "uint8"
        }
      ],
      "name": "OperationCancelled",
      "type": "event"
    },
    {
      "anonymous": false,
      "inputs": [
        {
          "components": [
            {
              "internalType": "bytes32",
              "name": "originBlockHash",
              "type": "bytes32"
            },
            {
              "internalType": "bytes32",
              "name": "originTransactionHash",
              "type": "bytes32"
            },
            {
              "internalType": "bytes32",
              "name": "optionsMask",
              "type": "bytes32"
            },
            {
              "internalType": "uint256",
              "name": "nonce",
              "type": "uint256"
            },
            {
              "internalType": "uint256",
              "name": "underlyingAssetDecimals",
              "type": "uint256"
            },
            {
              "internalType": "uint256",
              "name": "assetAmount",
              "type": "uint256"
            },
            {
              "internalType": "uint256",
              "name": "userDataProtocolFeeAssetAmount",
              "type": "uint256"
            },
            {
              "internalType": "uint256",
              "name": "networkFeeAssetAmount",
              "type": "uint256"
            },
            {
              "internalType": "uint256",
              "name": "forwardNetworkFeeAssetAmount",
              "type": "uint256"
            },
            {
              "internalType": "address",
              "name": "underlyingAssetTokenAddress",
              "type": "address"
            },
            {
              "internalType": "bytes4",
              "name": "originNetworkId",
              "type": "bytes4"
            },
            {
              "internalType": "bytes4",
              "name": "destinationNetworkId",
              "type": "bytes4"
            },
            {
              "internalType": "bytes4",
              "name": "forwardDestinationNetworkId",
              "type": "bytes4"
            },
            {
              "internalType": "bytes4",
              "name": "underlyingAssetNetworkId",
              "type": "bytes4"
            },
            {
              "internalType": "string",
              "name": "originAccount",
              "type": "string"
            },
            {
              "internalType": "string",
              "name": "destinationAccount",
              "type": "string"
            },
            {
              "internalType": "string",
              "name": "underlyingAssetName",
              "type": "string"
            },
            {
              "internalType": "string",
              "name": "underlyingAssetSymbol",
              "type": "string"
            },
            {
              "internalType": "bytes",
              "name": "userData",
              "type": "bytes"
            },
            {
              "internalType": "bool",
              "name": "isForProtocol",
              "type": "bool"
            }
          ],
          "indexed": false,
          "internalType": "struct IPNetworkHub.Operation",
          "name": "operation",
          "type": "tuple"
        }
      ],
      "name": "OperationExecuted",
      "type": "event"
    },
    {
      "anonymous": false,
      "inputs": [
        {
          "components": [
            {
              "internalType": "bytes32",
              "name": "originBlockHash",
              "type": "bytes32"
            },
            {
              "internalType": "bytes32",
              "name": "originTransactionHash",
              "type": "bytes32"
            },
            {
              "internalType": "bytes32",
              "name": "optionsMask",
              "type": "bytes32"
            },
            {
              "internalType": "uint256",
              "name": "nonce",
              "type": "uint256"
            },
            {
              "internalType": "uint256",
              "name": "underlyingAssetDecimals",
              "type": "uint256"
            },
            {
              "internalType": "uint256",
              "name": "assetAmount",
              "type": "uint256"
            },
            {
              "internalType": "uint256",
              "name": "userDataProtocolFeeAssetAmount",
              "type": "uint256"
            },
            {
              "internalType": "uint256",
              "name": "networkFeeAssetAmount",
              "type": "uint256"
            },
            {
              "internalType": "uint256",
              "name": "forwardNetworkFeeAssetAmount",
              "type": "uint256"
            },
            {
              "internalType": "address",
              "name": "underlyingAssetTokenAddress",
              "type": "address"
            },
            {
              "internalType": "bytes4",
              "name": "originNetworkId",
              "type": "bytes4"
            },
            {
              "internalType": "bytes4",
              "name": "destinationNetworkId",
              "type": "bytes4"
            },
            {
              "internalType": "bytes4",
              "name": "forwardDestinationNetworkId",
              "type": "bytes4"
            },
            {
              "internalType": "bytes4",
              "name": "underlyingAssetNetworkId",
              "type": "bytes4"
            },
            {
              "internalType": "string",
              "name": "originAccount",
              "type": "string"
            },
            {
              "internalType": "string",
              "name": "destinationAccount",
              "type": "string"
            },
            {
              "internalType": "string",
              "name": "underlyingAssetName",
              "type": "string"
            },
            {
              "internalType": "string",
              "name": "underlyingAssetSymbol",
              "type": "string"
            },
            {
              "internalType": "bytes",
              "name": "userData",
              "type": "bytes"
            },
            {
              "internalType": "bool",
              "name": "isForProtocol",
              "type": "bool"
            }
          ],
          "indexed": false,
          "internalType": "struct IPNetworkHub.Operation",
          "name": "operation",
          "type": "tuple"
        }
      ],
      "name": "OperationQueued",
      "type": "event"
    },
    {
      "anonymous": false,
      "inputs": [
        {
          "indexed": false,
          "internalType": "uint256",
          "name": "nonce",
          "type": "uint256"
        },
        {
          "indexed": false,
          "internalType": "string",
          "name": "originAccount",
          "type": "string"
        },
        {
          "indexed": false,
          "internalType": "string",
          "name": "destinationAccount",
          "type": "string"
        },
        {
          "indexed": false,
          "internalType": "bytes4",
          "name": "destinationNetworkId",
          "type": "bytes4"
        },
        {
          "indexed": false,
          "internalType": "string",
          "name": "underlyingAssetName",
          "type": "string"
        },
        {
          "indexed": false,
          "internalType": "string",
          "name": "underlyingAssetSymbol",
          "type": "string"
        },
        {
          "indexed": false,
          "internalType": "uint256",
          "name": "underlyingAssetDecimals",
          "type": "uint256"
        },
        {
          "indexed": false,
          "internalType": "address",
          "name": "underlyingAssetTokenAddress",
          "type": "address"
        },
        {
          "indexed": false,
          "internalType": "bytes4",
          "name": "underlyingAssetNetworkId",
          "type": "bytes4"
        },
        {
          "indexed": false,
          "internalType": "address",
          "name": "assetTokenAddress",
          "type": "address"
        },
        {
          "indexed": false,
          "internalType": "uint256",
          "name": "assetAmount",
          "type": "uint256"
        },
        {
          "indexed": false,
          "internalType": "uint256",
          "name": "userDataProtocolFeeAssetAmount",
          "type": "uint256"
        },
        {
          "indexed": false,
          "internalType": "uint256",
          "name": "networkFeeAssetAmount",
          "type": "uint256"
        },
        {
          "indexed": false,
          "internalType": "uint256",
          "name": "forwardNetworkFeeAssetAmount",
          "type": "uint256"
        },
        {
          "indexed": false,
          "internalType": "bytes4",
          "name": "forwardDestinationNetworkId",
          "type": "bytes4"
        },
        {
          "indexed": false,
          "internalType": "bytes",
          "name": "userData",
          "type": "bytes"
        },
        {
          "indexed": false,
          "internalType": "bytes32",
          "name": "optionsMask",
          "type": "bytes32"
        },
        {
          "indexed": false,
          "internalType": "bool",
          "name": "isForProtocol",
          "type": "bool"
        }
      ],
      "name": "UserOperation",
      "type": "event"
    },
    {
      "inputs": [],
      "name": "FEE_BASIS_POINTS_DIVISOR",
      "outputs": [
        {
          "internalType": "uint256",
          "name": "",
          "type": "uint256"
        }
      ],
      "stateMutability": "view",
      "type": "function"
    },
    {
      "inputs": [],
      "name": "GOVERNANCE_MESSAGE_ACTORS",
      "outputs": [
        {
          "internalType": "bytes32",
          "name": "",
          "type": "bytes32"
        }
      ],
      "stateMutability": "view",
      "type": "function"
    },
    {
      "inputs": [],
      "name": "GOVERNANCE_MESSAGE_PROTOCOL_GOVERNANCE_CANCEL_OPERATION",
      "outputs": [
        {
          "internalType": "bytes32",
          "name": "",
          "type": "bytes32"
        }
      ],
      "stateMutability": "view",
      "type": "function"
    },
    {
      "inputs": [],
      "name": "GOVERNANCE_MESSAGE_RESUME_ACTOR",
      "outputs": [
        {
          "internalType": "bytes32",
          "name": "",
          "type": "bytes32"
        }
      ],
      "stateMutability": "view",
      "type": "function"
    },
    {
      "inputs": [],
      "name": "GOVERNANCE_MESSAGE_SLASH_ACTOR",
      "outputs": [
        {
          "internalType": "bytes32",
          "name": "",
          "type": "bytes32"
        }
      ],
      "stateMutability": "view",
      "type": "function"
    },
    {
      "inputs": [],
      "name": "UNDERLYING_ASSET_DECIMALS_USER_DATA_PROTOCOL_FEE",
      "outputs": [
        {
          "internalType": "uint256",
          "name": "",
          "type": "uint256"
        }
      ],
      "stateMutability": "view",
      "type": "function"
    },
    {
      "inputs": [],
      "name": "UNDERLYING_ASSET_NAME_USER_DATA_PROTOCOL_FEE",
      "outputs": [
        {
          "internalType": "string",
          "name": "",
          "type": "string"
        }
      ],
      "stateMutability": "view",
      "type": "function"
    },
    {
      "inputs": [],
      "name": "UNDERLYING_ASSET_NETWORK_ID_USER_DATA_PROTOCOL_FEE",
      "outputs": [
        {
          "internalType": "bytes4",
          "name": "",
          "type": "bytes4"
        }
      ],
      "stateMutability": "view",
      "type": "function"
    },
    {
      "inputs": [],
      "name": "UNDERLYING_ASSET_SYMBOL_USER_DATA_PROTOCOL_FEE",
      "outputs": [
        {
          "internalType": "string",
          "name": "",
          "type": "string"
        }
      ],
      "stateMutability": "view",
      "type": "function"
    },
    {
      "inputs": [],
      "name": "UNDERLYING_ASSET_TOKEN_ADDRESS_USER_DATA_PROTOCOL_FEE",
      "outputs": [
        {
          "internalType": "address",
          "name": "",
          "type": "address"
        }
      ],
      "stateMutability": "view",
      "type": "function"
    },
    {
      "inputs": [],
      "name": "baseChallengePeriodDuration",
      "outputs": [
        {
          "internalType": "uint32",
          "name": "",
          "type": "uint32"
        }
      ],
      "stateMutability": "view",
      "type": "function"
    },
    {
      "inputs": [],
      "name": "challengeDuration",
      "outputs": [
        {
          "internalType": "uint64",
          "name": "",
          "type": "uint64"
        }
      ],
      "stateMutability": "view",
      "type": "function"
    },
    {
      "inputs": [
        {
          "components": [
            {
              "internalType": "uint256",
              "name": "nonce",
              "type": "uint256"
            },
            {
              "internalType": "address",
              "name": "actor",
              "type": "address"
            },
            {
              "internalType": "address",
              "name": "challenger",
              "type": "address"
            },
            {
              "internalType": "enum IPNetworkHub.ActorTypes",
              "name": "actorType",
              "type": "uint8"
            },
            {
              "internalType": "uint64",
              "name": "timestamp",
              "type": "uint64"
            },
            {
              "internalType": "bytes4",
              "name": "networkId",
              "type": "bytes4"
            }
          ],
          "internalType": "struct IPNetworkHub.Challenge",
          "name": "challenge",
          "type": "tuple"
        }
      ],
      "name": "challengeIdOf",
      "outputs": [
        {
          "internalType": "bytes32",
          "name": "",
          "type": "bytes32"
        }
      ],
      "stateMutability": "pure",
      "type": "function"
    },
    {
      "inputs": [
        {
          "components": [
            {
              "internalType": "bytes32",
              "name": "originBlockHash",
              "type": "bytes32"
            },
            {
              "internalType": "bytes32",
              "name": "originTransactionHash",
              "type": "bytes32"
            },
            {
              "internalType": "bytes32",
              "name": "optionsMask",
              "type": "bytes32"
            },
            {
              "internalType": "uint256",
              "name": "nonce",
              "type": "uint256"
            },
            {
              "internalType": "uint256",
              "name": "underlyingAssetDecimals",
              "type": "uint256"
            },
            {
              "internalType": "uint256",
              "name": "assetAmount",
              "type": "uint256"
            },
            {
              "internalType": "uint256",
              "name": "userDataProtocolFeeAssetAmount",
              "type": "uint256"
            },
            {
              "internalType": "uint256",
              "name": "networkFeeAssetAmount",
              "type": "uint256"
            },
            {
              "internalType": "uint256",
              "name": "forwardNetworkFeeAssetAmount",
              "type": "uint256"
            },
            {
              "internalType": "address",
              "name": "underlyingAssetTokenAddress",
              "type": "address"
            },
            {
              "internalType": "bytes4",
              "name": "originNetworkId",
              "type": "bytes4"
            },
            {
              "internalType": "bytes4",
              "name": "destinationNetworkId",
              "type": "bytes4"
            },
            {
              "internalType": "bytes4",
              "name": "forwardDestinationNetworkId",
              "type": "bytes4"
            },
            {
              "internalType": "bytes4",
              "name": "underlyingAssetNetworkId",
              "type": "bytes4"
            },
            {
              "internalType": "string",
              "name": "originAccount",
              "type": "string"
            },
            {
              "internalType": "string",
              "name": "destinationAccount",
              "type": "string"
            },
            {
              "internalType": "string",
              "name": "underlyingAssetName",
              "type": "string"
            },
            {
              "internalType": "string",
              "name": "underlyingAssetSymbol",
              "type": "string"
            },
            {
              "internalType": "bytes",
              "name": "userData",
              "type": "bytes"
            },
            {
              "internalType": "bool",
              "name": "isForProtocol",
              "type": "bool"
            }
          ],
          "internalType": "struct IPNetworkHub.Operation",
          "name": "operation",
          "type": "tuple"
        }
      ],
      "name": "challengePeriodOf",
      "outputs": [
        {
          "internalType": "uint64",
          "name": "",
          "type": "uint64"
        },
        {
          "internalType": "uint64",
          "name": "",
          "type": "uint64"
        }
      ],
      "stateMutability": "view",
      "type": "function"
    },
    {
      "inputs": [],
      "name": "challengesNonce",
      "outputs": [
        {
          "internalType": "uint256",
          "name": "",
          "type": "uint256"
        }
      ],
      "stateMutability": "view",
      "type": "function"
    },
    {
      "inputs": [
        {
          "components": [
            {
              "internalType": "uint256",
              "name": "nonce",
              "type": "uint256"
            },
            {
              "internalType": "address",
              "name": "actor",
              "type": "address"
            },
            {
              "internalType": "address",
              "name": "challenger",
              "type": "address"
            },
            {
              "internalType": "enum IPNetworkHub.ActorTypes",
              "name": "actorType",
              "type": "uint8"
            },
            {
              "internalType": "uint64",
              "name": "timestamp",
              "type": "uint64"
            },
            {
              "internalType": "bytes4",
              "name": "networkId",
              "type": "bytes4"
            }
          ],
          "internalType": "struct IPNetworkHub.Challenge",
          "name": "challenge",
          "type": "tuple"
        }
      ],
      "name": "claimLockedAmountStartChallenge",
      "outputs": [],
      "stateMutability": "nonpayable",
      "type": "function"
    },
    {
      "inputs": [],
      "name": "dandelionVoting",
      "outputs": [
        {
          "internalType": "address",
          "name": "",
          "type": "address"
        }
      ],
      "stateMutability": "view",
      "type": "function"
    },
    {
      "inputs": [],
      "name": "epochsManager",
      "outputs": [
        {
          "internalType": "address",
          "name": "",
          "type": "address"
        }
      ],
      "stateMutability": "view",
      "type": "function"
    },
    {
      "inputs": [],
      "name": "expectedSourceChainId",
      "outputs": [
        {
          "internalType": "uint32",
          "name": "",
          "type": "uint32"
        }
      ],
      "stateMutability": "view",
      "type": "function"
    },
    {
      "inputs": [],
      "name": "factory",
      "outputs": [
        {
          "internalType": "address",
          "name": "",
          "type": "address"
        }
      ],
      "stateMutability": "view",
      "type": "function"
    },
    {
      "inputs": [],
      "name": "feesManager",
      "outputs": [
        {
          "internalType": "address",
          "name": "",
          "type": "address"
        }
      ],
      "stateMutability": "view",
      "type": "function"
    },
    {
      "inputs": [
        {
          "components": [
            {
              "internalType": "uint256",
              "name": "nonce",
              "type": "uint256"
            },
            {
              "internalType": "address",
              "name": "actor",
              "type": "address"
            },
            {
              "internalType": "address",
              "name": "challenger",
              "type": "address"
            },
            {
              "internalType": "enum IPNetworkHub.ActorTypes",
              "name": "actorType",
              "type": "uint8"
            },
            {
              "internalType": "uint64",
              "name": "timestamp",
              "type": "uint64"
            },
            {
              "internalType": "bytes4",
              "name": "networkId",
              "type": "bytes4"
            }
          ],
          "internalType": "struct IPNetworkHub.Challenge",
          "name": "challenge",
          "type": "tuple"
        }
      ],
      "name": "getChallengeEpoch",
      "outputs": [
        {
          "internalType": "uint16",
          "name": "",
          "type": "uint16"
        }
      ],
      "stateMutability": "view",
      "type": "function"
    },
    {
      "inputs": [
        {
          "components": [
            {
              "internalType": "uint256",
              "name": "nonce",
              "type": "uint256"
            },
            {
              "internalType": "address",
              "name": "actor",
              "type": "address"
            },
            {
              "internalType": "address",
              "name": "challenger",
              "type": "address"
            },
            {
              "internalType": "enum IPNetworkHub.ActorTypes",
              "name": "actorType",
              "type": "uint8"
            },
            {
              "internalType": "uint64",
              "name": "timestamp",
              "type": "uint64"
            },
            {
              "internalType": "bytes4",
              "name": "networkId",
              "type": "bytes4"
            }
          ],
          "internalType": "struct IPNetworkHub.Challenge",
          "name": "challenge",
          "type": "tuple"
        }
      ],
      "name": "getChallengeStatus",
      "outputs": [
        {
          "internalType": "enum IPNetworkHub.ChallengeStatus",
          "name": "",
          "type": "uint8"
        }
      ],
      "stateMutability": "view",
      "type": "function"
    },
    {
      "inputs": [],
      "name": "getCurrentChallengePeriodDuration",
      "outputs": [
        {
          "internalType": "uint64",
          "name": "",
          "type": "uint64"
        }
      ],
      "stateMutability": "view",
      "type": "function"
    },
    {
      "inputs": [],
      "name": "getCurrentQueuedOperationsAdjustmentDuration",
      "outputs": [
        {
          "internalType": "uint64",
          "name": "",
          "type": "uint64"
        }
      ],
      "stateMutability": "view",
      "type": "function"
    },
    {
      "inputs": [
        {
          "internalType": "uint16",
          "name": "epoch",
          "type": "uint16"
        },
        {
          "internalType": "address",
          "name": "actor",
          "type": "address"
        }
      ],
      "name": "getPendingChallengeIdByEpochOf",
      "outputs": [
        {
          "internalType": "bytes32",
          "name": "",
          "type": "bytes32"
        }
      ],
      "stateMutability": "view",
      "type": "function"
    },
    {
      "inputs": [
        {
          "internalType": "uint16",
          "name": "epoch",
          "type": "uint16"
        },
        {
          "internalType": "enum IPNetworkHub.ActorTypes",
          "name": "actorType",
          "type": "uint8"
        }
      ],
      "name": "getTotalNumberOfInactiveActorsByEpochAndType",
      "outputs": [
        {
          "internalType": "uint16",
          "name": "",
          "type": "uint16"
        }
      ],
      "stateMutability": "view",
      "type": "function"
    },
    {
      "inputs": [],
      "name": "governanceMessageVerifier",
      "outputs": [
        {
          "internalType": "address",
          "name": "",
          "type": "address"
        }
      ],
      "stateMutability": "view",
      "type": "function"
    },
    {
      "inputs": [
        {
          "internalType": "uint32",
          "name": "sourceChainId",
          "type": "uint32"
        },
        {
          "internalType": "address",
          "name": "sourceSender",
          "type": "address"
        },
        {
          "internalType": "bytes",
          "name": "data",
          "type": "bytes"
        }
      ],
      "name": "handleTelepathy",
      "outputs": [
        {
          "internalType": "bytes4",
          "name": "",
          "type": "bytes4"
        }
      ],
      "stateMutability": "nonpayable",
      "type": "function"
    },
    {
      "inputs": [],
      "name": "interimChainNetworkId",
      "outputs": [
        {
          "internalType": "bytes4",
          "name": "",
          "type": "bytes4"
        }
      ],
      "stateMutability": "view",
      "type": "function"
    },
    {
      "inputs": [],
      "name": "kChallengePeriod",
      "outputs": [
        {
          "internalType": "uint16",
          "name": "",
          "type": "uint16"
        }
      ],
      "stateMutability": "view",
      "type": "function"
    },
    {
      "inputs": [],
      "name": "lockedAmountChallengePeriod",
      "outputs": [
        {
          "internalType": "uint256",
          "name": "",
          "type": "uint256"
        }
      ],
      "stateMutability": "view",
      "type": "function"
    },
    {
      "inputs": [],
      "name": "lockedAmountStartChallenge",
      "outputs": [
        {
          "internalType": "uint256",
          "name": "",
          "type": "uint256"
        }
      ],
      "stateMutability": "view",
      "type": "function"
    },
    {
      "inputs": [],
      "name": "maxChallengePeriodDuration",
      "outputs": [
        {
          "internalType": "uint32",
          "name": "",
          "type": "uint32"
        }
      ],
      "stateMutability": "view",
      "type": "function"
    },
    {
      "inputs": [],
      "name": "maxOperationsInQueue",
      "outputs": [
        {
          "internalType": "uint16",
          "name": "",
          "type": "uint16"
        }
      ],
      "stateMutability": "view",
      "type": "function"
    },
    {
      "inputs": [],
      "name": "numberOfOperationsInQueue",
      "outputs": [
        {
          "internalType": "uint16",
          "name": "",
          "type": "uint16"
        }
      ],
      "stateMutability": "view",
      "type": "function"
    },
    {
      "inputs": [
        {
          "components": [
            {
              "internalType": "bytes32",
              "name": "originBlockHash",
              "type": "bytes32"
            },
            {
              "internalType": "bytes32",
              "name": "originTransactionHash",
              "type": "bytes32"
            },
            {
              "internalType": "bytes32",
              "name": "optionsMask",
              "type": "bytes32"
            },
            {
              "internalType": "uint256",
              "name": "nonce",
              "type": "uint256"
            },
            {
              "internalType": "uint256",
              "name": "underlyingAssetDecimals",
              "type": "uint256"
            },
            {
              "internalType": "uint256",
              "name": "assetAmount",
              "type": "uint256"
            },
            {
              "internalType": "uint256",
              "name": "userDataProtocolFeeAssetAmount",
              "type": "uint256"
            },
            {
              "internalType": "uint256",
              "name": "networkFeeAssetAmount",
              "type": "uint256"
            },
            {
              "internalType": "uint256",
              "name": "forwardNetworkFeeAssetAmount",
              "type": "uint256"
            },
            {
              "internalType": "address",
              "name": "underlyingAssetTokenAddress",
              "type": "address"
            },
            {
              "internalType": "bytes4",
              "name": "originNetworkId",
              "type": "bytes4"
            },
            {
              "internalType": "bytes4",
              "name": "destinationNetworkId",
              "type": "bytes4"
            },
            {
              "internalType": "bytes4",
              "name": "forwardDestinationNetworkId",
              "type": "bytes4"
            },
            {
              "internalType": "bytes4",
              "name": "underlyingAssetNetworkId",
              "type": "bytes4"
            },
            {
              "internalType": "string",
              "name": "originAccount",
              "type": "string"
            },
            {
              "internalType": "string",
              "name": "destinationAccount",
              "type": "string"
            },
            {
              "internalType": "string",
              "name": "underlyingAssetName",
              "type": "string"
            },
            {
              "internalType": "string",
              "name": "underlyingAssetSymbol",
              "type": "string"
            },
            {
              "internalType": "bytes",
              "name": "userData",
              "type": "bytes"
            },
            {
              "internalType": "bool",
              "name": "isForProtocol",
              "type": "bool"
            }
          ],
          "internalType": "struct IPNetworkHub.Operation",
          "name": "operation",
          "type": "tuple"
        }
      ],
      "name": "operationIdOf",
      "outputs": [
        {
          "internalType": "bytes32",
          "name": "",
          "type": "bytes32"
        }
      ],
      "stateMutability": "pure",
      "type": "function"
    },
    {
      "inputs": [
        {
          "components": [
            {
              "internalType": "bytes32",
              "name": "originBlockHash",
              "type": "bytes32"
            },
            {
              "internalType": "bytes32",
              "name": "originTransactionHash",
              "type": "bytes32"
            },
            {
              "internalType": "bytes32",
              "name": "optionsMask",
              "type": "bytes32"
            },
            {
              "internalType": "uint256",
              "name": "nonce",
              "type": "uint256"
            },
            {
              "internalType": "uint256",
              "name": "underlyingAssetDecimals",
              "type": "uint256"
            },
            {
              "internalType": "uint256",
              "name": "assetAmount",
              "type": "uint256"
            },
            {
              "internalType": "uint256",
              "name": "userDataProtocolFeeAssetAmount",
              "type": "uint256"
            },
            {
              "internalType": "uint256",
              "name": "networkFeeAssetAmount",
              "type": "uint256"
            },
            {
              "internalType": "uint256",
              "name": "forwardNetworkFeeAssetAmount",
              "type": "uint256"
            },
            {
              "internalType": "address",
              "name": "underlyingAssetTokenAddress",
              "type": "address"
            },
            {
              "internalType": "bytes4",
              "name": "originNetworkId",
              "type": "bytes4"
            },
            {
              "internalType": "bytes4",
              "name": "destinationNetworkId",
              "type": "bytes4"
            },
            {
              "internalType": "bytes4",
              "name": "forwardDestinationNetworkId",
              "type": "bytes4"
            },
            {
              "internalType": "bytes4",
              "name": "underlyingAssetNetworkId",
              "type": "bytes4"
            },
            {
              "internalType": "string",
              "name": "originAccount",
              "type": "string"
            },
            {
              "internalType": "string",
              "name": "destinationAccount",
              "type": "string"
            },
            {
              "internalType": "string",
              "name": "underlyingAssetName",
              "type": "string"
            },
            {
              "internalType": "string",
              "name": "underlyingAssetSymbol",
              "type": "string"
            },
            {
              "internalType": "bytes",
              "name": "userData",
              "type": "bytes"
            },
            {
              "internalType": "bool",
              "name": "isForProtocol",
              "type": "bool"
            }
          ],
          "internalType": "struct IPNetworkHub.Operation",
          "name": "operation",
          "type": "tuple"
        }
      ],
      "name": "operationStatusOf",
      "outputs": [
        {
          "internalType": "enum IPNetworkHub.OperationStatus",
          "name": "",
          "type": "uint8"
        }
      ],
      "stateMutability": "view",
      "type": "function"
    },
    {
      "inputs": [
        {
          "components": [
            {
              "internalType": "bytes32",
              "name": "originBlockHash",
              "type": "bytes32"
            },
            {
              "internalType": "bytes32",
              "name": "originTransactionHash",
              "type": "bytes32"
            },
            {
              "internalType": "bytes32",
              "name": "optionsMask",
              "type": "bytes32"
            },
            {
              "internalType": "uint256",
              "name": "nonce",
              "type": "uint256"
            },
            {
              "internalType": "uint256",
              "name": "underlyingAssetDecimals",
              "type": "uint256"
            },
            {
              "internalType": "uint256",
              "name": "assetAmount",
              "type": "uint256"
            },
            {
              "internalType": "uint256",
              "name": "userDataProtocolFeeAssetAmount",
              "type": "uint256"
            },
            {
              "internalType": "uint256",
              "name": "networkFeeAssetAmount",
              "type": "uint256"
            },
            {
              "internalType": "uint256",
              "name": "forwardNetworkFeeAssetAmount",
              "type": "uint256"
            },
            {
              "internalType": "address",
              "name": "underlyingAssetTokenAddress",
              "type": "address"
            },
            {
              "internalType": "bytes4",
              "name": "originNetworkId",
              "type": "bytes4"
            },
            {
              "internalType": "bytes4",
              "name": "destinationNetworkId",
              "type": "bytes4"
            },
            {
              "internalType": "bytes4",
              "name": "forwardDestinationNetworkId",
              "type": "bytes4"
            },
            {
              "internalType": "bytes4",
              "name": "underlyingAssetNetworkId",
              "type": "bytes4"
            },
            {
              "internalType": "string",
              "name": "originAccount",
              "type": "string"
            },
            {
              "internalType": "string",
              "name": "destinationAccount",
              "type": "string"
            },
            {
              "internalType": "string",
              "name": "underlyingAssetName",
              "type": "string"
            },
            {
              "internalType": "string",
              "name": "underlyingAssetSymbol",
              "type": "string"
            },
            {
              "internalType": "bytes",
              "name": "userData",
              "type": "bytes"
            },
            {
              "internalType": "bool",
              "name": "isForProtocol",
              "type": "bool"
            }
          ],
          "internalType": "struct IPNetworkHub.Operation",
          "name": "operation",
          "type": "tuple"
        },
        {
          "internalType": "enum IPNetworkHub.ActorTypes",
          "name": "actorType",
          "type": "uint8"
        },
        {
          "internalType": "bytes32[]",
          "name": "proof",
          "type": "bytes32[]"
        },
        {
          "internalType": "bytes",
          "name": "signature",
          "type": "bytes"
        }
      ],
      "name": "protocolCancelOperation",
      "outputs": [],
      "stateMutability": "nonpayable",
      "type": "function"
    },
    {
      "inputs": [
        {
          "components": [
            {
              "internalType": "bytes32",
              "name": "originBlockHash",
              "type": "bytes32"
            },
            {
              "internalType": "bytes32",
              "name": "originTransactionHash",
              "type": "bytes32"
            },
            {
              "internalType": "bytes32",
              "name": "optionsMask",
              "type": "bytes32"
            },
            {
              "internalType": "uint256",
              "name": "nonce",
              "type": "uint256"
            },
            {
              "internalType": "uint256",
              "name": "underlyingAssetDecimals",
              "type": "uint256"
            },
            {
              "internalType": "uint256",
              "name": "assetAmount",
              "type": "uint256"
            },
            {
              "internalType": "uint256",
              "name": "userDataProtocolFeeAssetAmount",
              "type": "uint256"
            },
            {
              "internalType": "uint256",
              "name": "networkFeeAssetAmount",
              "type": "uint256"
            },
            {
              "internalType": "uint256",
              "name": "forwardNetworkFeeAssetAmount",
              "type": "uint256"
            },
            {
              "internalType": "address",
              "name": "underlyingAssetTokenAddress",
              "type": "address"
            },
            {
              "internalType": "bytes4",
              "name": "originNetworkId",
              "type": "bytes4"
            },
            {
              "internalType": "bytes4",
              "name": "destinationNetworkId",
              "type": "bytes4"
            },
            {
              "internalType": "bytes4",
              "name": "forwardDestinationNetworkId",
              "type": "bytes4"
            },
            {
              "internalType": "bytes4",
              "name": "underlyingAssetNetworkId",
              "type": "bytes4"
            },
            {
              "internalType": "string",
              "name": "originAccount",
              "type": "string"
            },
            {
              "internalType": "string",
              "name": "destinationAccount",
              "type": "string"
            },
            {
              "internalType": "string",
              "name": "underlyingAssetName",
              "type": "string"
            },
            {
              "internalType": "string",
              "name": "underlyingAssetSymbol",
              "type": "string"
            },
            {
              "internalType": "bytes",
              "name": "userData",
              "type": "bytes"
            },
            {
              "internalType": "bool",
              "name": "isForProtocol",
              "type": "bool"
            }
          ],
          "internalType": "struct IPNetworkHub.Operation",
          "name": "operation",
          "type": "tuple"
        }
      ],
      "name": "protocolExecuteOperation",
      "outputs": [],
      "stateMutability": "payable",
      "type": "function"
    },
    {
      "inputs": [
        {
          "components": [
            {
              "internalType": "bytes32",
              "name": "originBlockHash",
              "type": "bytes32"
            },
            {
              "internalType": "bytes32",
              "name": "originTransactionHash",
              "type": "bytes32"
            },
            {
              "internalType": "bytes32",
              "name": "optionsMask",
              "type": "bytes32"
            },
            {
              "internalType": "uint256",
              "name": "nonce",
              "type": "uint256"
            },
            {
              "internalType": "uint256",
              "name": "underlyingAssetDecimals",
              "type": "uint256"
            },
            {
              "internalType": "uint256",
              "name": "assetAmount",
              "type": "uint256"
            },
            {
              "internalType": "uint256",
              "name": "userDataProtocolFeeAssetAmount",
              "type": "uint256"
            },
            {
              "internalType": "uint256",
              "name": "networkFeeAssetAmount",
              "type": "uint256"
            },
            {
              "internalType": "uint256",
              "name": "forwardNetworkFeeAssetAmount",
              "type": "uint256"
            },
            {
              "internalType": "address",
              "name": "underlyingAssetTokenAddress",
              "type": "address"
            },
            {
              "internalType": "bytes4",
              "name": "originNetworkId",
              "type": "bytes4"
            },
            {
              "internalType": "bytes4",
              "name": "destinationNetworkId",
              "type": "bytes4"
            },
            {
              "internalType": "bytes4",
              "name": "forwardDestinationNetworkId",
              "type": "bytes4"
            },
            {
              "internalType": "bytes4",
              "name": "underlyingAssetNetworkId",
              "type": "bytes4"
            },
            {
              "internalType": "string",
              "name": "originAccount",
              "type": "string"
            },
            {
              "internalType": "string",
              "name": "destinationAccount",
              "type": "string"
            },
            {
              "internalType": "string",
              "name": "underlyingAssetName",
              "type": "string"
            },
            {
              "internalType": "string",
              "name": "underlyingAssetSymbol",
              "type": "string"
            },
            {
              "internalType": "bytes",
              "name": "userData",
              "type": "bytes"
            },
            {
              "internalType": "bool",
              "name": "isForProtocol",
              "type": "bool"
            }
          ],
          "internalType": "struct IPNetworkHub.Operation",
          "name": "operation",
          "type": "tuple"
        }
      ],
      "name": "protocolGovernanceCancelOperation",
      "outputs": [],
      "stateMutability": "nonpayable",
      "type": "function"
    },
    {
      "inputs": [
        {
          "components": [
            {
              "internalType": "bytes32",
              "name": "originBlockHash",
              "type": "bytes32"
            },
            {
              "internalType": "bytes32",
              "name": "originTransactionHash",
              "type": "bytes32"
            },
            {
              "internalType": "bytes32",
              "name": "optionsMask",
              "type": "bytes32"
            },
            {
              "internalType": "uint256",
              "name": "nonce",
              "type": "uint256"
            },
            {
              "internalType": "uint256",
              "name": "underlyingAssetDecimals",
              "type": "uint256"
            },
            {
              "internalType": "uint256",
              "name": "assetAmount",
              "type": "uint256"
            },
            {
              "internalType": "uint256",
              "name": "userDataProtocolFeeAssetAmount",
              "type": "uint256"
            },
            {
              "internalType": "uint256",
              "name": "networkFeeAssetAmount",
              "type": "uint256"
            },
            {
              "internalType": "uint256",
              "name": "forwardNetworkFeeAssetAmount",
              "type": "uint256"
            },
            {
              "internalType": "address",
              "name": "underlyingAssetTokenAddress",
              "type": "address"
            },
            {
              "internalType": "bytes4",
              "name": "originNetworkId",
              "type": "bytes4"
            },
            {
              "internalType": "bytes4",
              "name": "destinationNetworkId",
              "type": "bytes4"
            },
            {
              "internalType": "bytes4",
              "name": "forwardDestinationNetworkId",
              "type": "bytes4"
            },
            {
              "internalType": "bytes4",
              "name": "underlyingAssetNetworkId",
              "type": "bytes4"
            },
            {
              "internalType": "string",
              "name": "originAccount",
              "type": "string"
            },
            {
              "internalType": "string",
              "name": "destinationAccount",
              "type": "string"
            },
            {
              "internalType": "string",
              "name": "underlyingAssetName",
              "type": "string"
            },
            {
              "internalType": "string",
              "name": "underlyingAssetSymbol",
              "type": "string"
            },
            {
              "internalType": "bytes",
              "name": "userData",
              "type": "bytes"
            },
            {
              "internalType": "bool",
              "name": "isForProtocol",
              "type": "bool"
            }
          ],
          "internalType": "struct IPNetworkHub.Operation",
          "name": "operation",
          "type": "tuple"
        }
      ],
      "name": "protocolQueueOperation",
      "outputs": [],
      "stateMutability": "payable",
      "type": "function"
    },
    {
      "inputs": [
        {
          "components": [
            {
              "internalType": "uint256",
              "name": "nonce",
              "type": "uint256"
            },
            {
              "internalType": "address",
              "name": "actor",
              "type": "address"
            },
            {
              "internalType": "address",
              "name": "challenger",
              "type": "address"
            },
            {
              "internalType": "enum IPNetworkHub.ActorTypes",
              "name": "actorType",
              "type": "uint8"
            },
            {
              "internalType": "uint64",
              "name": "timestamp",
              "type": "uint64"
            },
            {
              "internalType": "bytes4",
              "name": "networkId",
              "type": "bytes4"
            }
          ],
          "internalType": "struct IPNetworkHub.Challenge",
          "name": "challenge",
          "type": "tuple"
        }
      ],
      "name": "slashByChallenge",
      "outputs": [],
      "stateMutability": "nonpayable",
      "type": "function"
    },
    {
      "inputs": [],
      "name": "slasher",
      "outputs": [
        {
          "internalType": "address",
          "name": "",
          "type": "address"
        }
      ],
      "stateMutability": "view",
      "type": "function"
    },
    {
      "inputs": [
        {
          "components": [
            {
              "internalType": "uint256",
              "name": "nonce",
              "type": "uint256"
            },
            {
              "internalType": "address",
              "name": "actor",
              "type": "address"
            },
            {
              "internalType": "address",
              "name": "challenger",
              "type": "address"
            },
            {
              "internalType": "enum IPNetworkHub.ActorTypes",
              "name": "actorType",
              "type": "uint8"
            },
            {
              "internalType": "uint64",
              "name": "timestamp",
              "type": "uint64"
            },
            {
              "internalType": "bytes4",
              "name": "networkId",
              "type": "bytes4"
            }
          ],
          "internalType": "struct IPNetworkHub.Challenge",
          "name": "challenge",
          "type": "tuple"
        },
        {
          "internalType": "enum IPNetworkHub.ActorTypes",
          "name": "actorType",
          "type": "uint8"
        },
        {
          "internalType": "bytes32[]",
          "name": "proof",
          "type": "bytes32[]"
        },
        {
          "internalType": "bytes",
          "name": "signature",
          "type": "bytes"
        }
      ],
      "name": "solveChallenge",
      "outputs": [],
      "stateMutability": "nonpayable",
      "type": "function"
    },
    {
      "inputs": [
        {
          "internalType": "address",
          "name": "actor",
          "type": "address"
        },
        {
          "internalType": "enum IPNetworkHub.ActorTypes",
          "name": "actorType",
          "type": "uint8"
        },
        {
          "internalType": "bytes32[]",
          "name": "proof",
          "type": "bytes32[]"
        }
      ],
      "name": "startChallenge",
      "outputs": [],
      "stateMutability": "payable",
      "type": "function"
    },
    {
      "inputs": [],
      "name": "telepathyRouter",
      "outputs": [
        {
          "internalType": "address",
          "name": "",
          "type": "address"
        }
      ],
      "stateMutability": "view",
      "type": "function"
    },
    {
      "inputs": [
        {
          "internalType": "string",
          "name": "destinationAccount",
          "type": "string"
        },
        {
          "internalType": "bytes4",
          "name": "destinationNetworkId",
          "type": "bytes4"
        },
        {
          "internalType": "string",
          "name": "underlyingAssetName",
          "type": "string"
        },
        {
          "internalType": "string",
          "name": "underlyingAssetSymbol",
          "type": "string"
        },
        {
          "internalType": "uint256",
          "name": "underlyingAssetDecimals",
          "type": "uint256"
        },
        {
          "internalType": "address",
          "name": "underlyingAssetTokenAddress",
          "type": "address"
        },
        {
          "internalType": "bytes4",
          "name": "underlyingAssetNetworkId",
          "type": "bytes4"
        },
        {
          "internalType": "address",
          "name": "assetTokenAddress",
          "type": "address"
        },
        {
          "internalType": "uint256",
          "name": "assetAmount",
          "type": "uint256"
        },
        {
          "internalType": "uint256",
          "name": "networkFeeAssetAmount",
          "type": "uint256"
        },
        {
          "internalType": "uint256",
          "name": "forwardNetworkFeeAssetAmount",
          "type": "uint256"
        },
        {
          "internalType": "bytes",
          "name": "userData",
          "type": "bytes"
        },
        {
          "internalType": "bytes32",
          "name": "optionsMask",
          "type": "bytes32"
        }
      ],
      "name": "userSend",
      "outputs": [],
      "stateMutability": "nonpayable",
      "type": "function"
    }
  ],
  "bytecode": "0x34620003d95762005e8238819003610280601f8201601f19168101906001600160401b03821190821017620003de576101e09282916040526102803912620003d9576200004e610280620003f4565b6200005b6102a062000409565b620000686102c0620003f4565b620000756102e0620003f4565b9062000083610300620003f4565b9062000091610320620003f4565b926200009f610340620003f4565b94620000ad610360620003f4565b6103805196620000bf6103a06200041b565b93620000cd6103c06200041b565b6103e0519a9096906001600160e01b03198c168c03620003d95761040051610420519a9099906001600160401b038c168c03620003d9576200011161044062000409565b9160805260a05260c05260006001815561ffff908162000133818c166200042b565b16828a16809102928316928303620003c55763ffffffff92838a1601838111620003b157831603908282116200039d57506101a0819052166001600160401b038b16811062000374575060e05261010052610120526101405261016052610180526102209485526101c0526101e052610200938452610240908152610260918252604051926159ad9485620004d586396080518581816104880152611b3c015260a051858181611b920152612157015260c05185818161190c0152611b67015260e051858181610520015281816114160152818161162f015281816139280152614c620152610100518581816105bb01528181610c9f015281816118c101528181611cdb015281816122e10152818161255601528181612fd8015281816142890152818161440701526145c401526101205185818161242301528181614cd90152614e72015261014051858181610787015281816108c20152610a890152610160518581816102cd01526119d1015261018051858181610250015281816131fe015261323d01526101a05185818161223c01526144b401526101c05185818161039001526131c701526101e051858181610b7d0152610ea90152518481816102960152818161075d015281816110ba015281816112cd0152818161398c0152613e3a015251838181610acf01528181610e7701528181612706015281816149060152614a020152518281816106de01528181610d1d01528181611e00015281816121ba015261554601525181818161063801528181611d9701526121fc0152f35b6040516331da385160e11b81526001600160401b038c1660048201526024810191909152604490fd5b634e487b7160e01b81526011600452602490fd5b634e487b7160e01b83526011600452602483fd5b634e487b7160e01b82526011600452602482fd5b600080fd5b634e487b7160e01b600052604160045260246000fd5b51906001600160a01b0382168203620003d957565b519063ffffffff82168203620003d957565b519061ffff82168203620003d957565b6000908015620004d0578080600114620004c857600214620004c0576001918261013383101683600b84101617620004ab5760028392935b8082116200047e5750508261ffff0482116200039d57500290565b90938061ffff048111620003b157818516620004a1575b800293811c9062000463565b8093029262000495565b9291506002900a9161ffff83116200039d5750565b509060049150565b505050600190565b509056fe610120604052600436101561001357600080fd5b6000803560e01c908162cc86a61461245257816305a9e0731461240e5781630739a33c146122ad57816308b4c8e5146122605781630e06dd7e14612220578163292f2e0e146121dd5781632b0d4569146121a35781632b4a78aa1461218657816330efc5e214612142578163317f5ec414611c8757816334e69f5614611c6c5781633a4140b214611c325781633bdc60d614611ae0578163494ebf9714611ac15781634a8ec93414611a8d5781634af37ad014611a5057816359fb19c714611a005781636069fdbb146119bc5781636784dba01461195157816367ec6aeb1461193057816371af8f00146118f0578163727b1ac6146118ac578163754b9f3e146110ea57816379d7a908146110a55781637d5a8095146110555781637e1e061d1461101b57816390a884d314610e6457816392f6106314610ba1578163932e088d14610b63578163935d83fc14610b48578163961bf80f14610b0e5781639c59e28914610af2578163a5d0958914610ab8578163b134427114610a74578163b8badd4f14610576578163c19ca9fa1461054f578163c45a01551461050b578163cd159ea81461022f578163d5245d82146104ea578163dc2ca2fd146104b7578163dcc6329014610473578163e382a71314610439578163e5ba0243146103e2578163e80a88de146103b4578163f5e1af1814610376578163f67ff4cb14610277578163fe6320e614610234575063fe8a6b431461022f57600080fd5b612dbd565b34610274578060031936011261027457602060405163ffffffff7f0000000000000000000000000000000000000000000000000000000000000000168152f35b80fd5b346102745761028536612be3565b61029463ffffffff461661566a565b7f0000000000000000000000000000000000000000000000000000000000000000906001600160e01b03198083169082160361034c57507f000000000000000000000000000000000000000000000000000000000000000090506001600160a01b038116330361032a575061032790339061032261031a6103153684612c2f565b61338c565b913690612c2f565b614795565b80f35b6040516316e648bd60e01b81529081906103489033600484016133af565b0390fd5b60405163fed5f6c360e01b81526001600160e01b0319918216600482015291166024820152604490fd5b34610274578060031936011261027457602060405161ffff7f0000000000000000000000000000000000000000000000000000000000000000168152f35b346102745780600319360112610274576020604051736b175474e89094c44da98b954eedeac495271d0f8152f35b34610274576040366003190112610274576103fb612dac565b60243560038110156104355760209260409161ffff8094168252600c85528282209061042681612e08565b82528452205416604051908152f35b8280fd5b3461027457806003193601126102745760206040517fd4d8222d0ae53ebfbdd08d62806506cb5c9c154d8bcaffc3f89830e9f18223b08152f35b346102745780600319360112610274576040517f00000000000000000000000000000000000000000000000000000000000000006001600160a01b03168152602090f35b346102745780600319360112610274576104e66104d2612de9565b604051918291602083526020830190612ac7565b0390f35b34610274578060031936011261027457602061ffff600f5416604051908152f35b346102745780600319360112610274576040517f00000000000000000000000000000000000000000000000000000000000000006001600160a01b03168152602090f35b346102745760c036600319011261027457602061056a612fc7565b61ffff60405191168152f35b346102745760031960c036820112610a705761059961059436612b56565b612e75565b604051630ecce30160e31b815290916020916001600160a01b039083816004817f000000000000000000000000000000000000000000000000000000000000000086165afa908115610a65578691610a30575b5061ffff809116808752600a855260408720868852855260ff6040882054166006811015610a1c578015610a0257600181036109db57506001600160401b0361065d610636612fa4565b7f00000000000000000000000000000000000000000000000000000000000000009061414d565b164211156109c9578695818752600a86526040872090875285526040862060ff1990600382825416179055818752600b8652604087208461069c612f7a565b1660005286526002604060002091825416179055808652600d855260408620836106c4612f7a565b166000528552856040600020556107036106dc612f64565b7f00000000000000000000000000000000000000000000000000000000000000009061591a565b8552600c84526040852060643560038110156109c55761072281612e08565b865284526040852090815490600181831601169061ffff191617905561074d63ffffffff461661566a565b6001600160e01b031990811691907f00000000000000000000000000000000000000000000000000000000000000001682810361089557507f0000000000000000000000000000000000000000000000000000000000000000166107b030615726565b6107e26107bb612f7a565b956107d46107c7612f64565b60405198899384016133af565b03601f198101875286612a3e565b813b15610891578561081d9361082c829660405198899788968795632471e25d60e21b87526004870152606060248701526064860190612ac7565b91848303016044850152612ac7565b03925af1801561088657610872575b50505b7f935530b8bda900e8c23b28917e94a8726c8a836ef6b498e4d5f3af45722b7ac16040518061086c81612ede565b0390a180f35b61087b906129f4565b61027457808261083b565b6040513d84823e3d90fd5b8580fd5b939250505060008051602061595883398151915292506109ae5a9160406108bb30615726565b94816108e67f0000000000000000000000000000000000000000000000000000000000000000615726565b936109446108f2612f7a565b9561091d6108fe612f64565b9761090f8651998a928784016133af565b03601f198101895288612a3e565b61093784519a8b9a8b5261024080868d01528b0190612ac7565b90898203858b0152612ac7565b92606088015289878403918260808a015281855280830160a08a01528401528960c08801528960e08801528961010088015289610120880152896101408801528961016088015289610180880152896101a0880152896101c0880152016101e08601520190612ac7565b8461020083015260016102208301520390a161083e565b8680fd5b6040516328ae338160e11b8152600490fd5b604051633ee76d3160e11b81526044916109f9906004830190612976565b60016024820152fd5b604051636eefc8ad60e11b81528061034860048201612ede565b634e487b7160e01b88526021600452602488fd5b90508381813d8311610a5e575b610a478183612a3e565b8101031261089157610a5890612ecf565b866105ec565b503d610a3d565b6040513d88823e3d90fd5b5080fd5b346102745780600319360112610274576040517f00000000000000000000000000000000000000000000000000000000000000006001600160a01b03168152602090f35b3461027457806003193601126102745760206040517f00000000000000000000000000000000000000000000000000000000000000008152f35b3461027457806003193601126102745760206040516127108152f35b3461027457806003193601126102745760206040517ffb3a8bb4934bcbebc9f9b183a5565b2fa1cc00339b02609d9034c675ac840dc68152f35b34610274578060031936011261027457602060405160128152f35b34610274578060031936011261027457602060405161ffff7f0000000000000000000000000000000000000000000000000000000000000000168152f35b346102745736600319016101208112610a705760c0136102745760c4356003811015610a70576001600160401b039060e435828111610e6057610be8903690600401612914565b9290916101043582811161089157610c5793610c0b610c5f923690600401612949565b610c51610c1d61059498939836612b56565b977f19457468657265756d205369676e6564204d6573736167653a0a3332000000008b5288601c52603c8b20923691612aec565b906134ec565b9290926133ed565b6001600160a01b039586610c71612f7a565b168784161491821592610e4c575b5050610e30575050604051630ecce30160e31b81526020929083816004817f000000000000000000000000000000000000000000000000000000000000000089165afa8015610a65578690610dfa575b61ffff91501691828652600a845260408620828752845260ff6040872054166006811015610de6578015610a0257600181036109db5750610d11610636612fa4565b164211610dd457610d417f00000000000000000000000000000000000000000000000000000000000000006158c8565b818552600a83526040852090855282526040842060ff1990600282825416179055818552600b83526040852084610d76612f7a565b16600052835260406000209081541690558352600d81526040832091610d9a612f7a565b1660005252806040600020557fea8e312ba84107c42fec02bd07ae90c5e0947f25b0cffaa43f35e0faf27eec486040518061086c81612ede565b604051631ecefcc760e21b8152600490fd5b634e487b7160e01b87526021600452602487fd5b508381813d8311610e29575b610e108183612a3e565b8101031261089157610e2461ffff91612ecf565b610ccf565b503d610e06565b610348604051928392634e857b2d60e11b8452600484016133c9565b610e58925084846145a3565b158780610c7f565b8380fd5b610e6d36612be3565b610e756143ed565b7f0000000000000000000000000000000000000000000000000000000000000000803403610ffd575061ffff80600f5416817f0000000000000000000000000000000000000000000000000000000000000000161115610feb57610edc6103153684612c2f565b808452600660205260ff6040852054166004811015610fd75780610fb057509161086c917fe7bf22971bde3dd8a6a3bf8434e8b7a7c7554dad8328f741da1484d67b445c199360405190610f2f82612a07565b33825260208201906001600160401b034216825287526001602052604087209160018060a01b039051168254916001600160401b0360a01b905160a01b169163ffffffff60e01b1617179055600660205260408520600160ff19825416179055600f5490600181831601169061ffff191617600f55604051918291826136b5565b604051633b04512760e21b8152604491610fce906004830190612c15565b60006024820152fd5b634e487b7160e01b85526021600452602485fd5b604051638acb5f2760e01b8152600490fd5b604490604051906307694a8d60e01b82523460048301526024820152fd5b3461027457806003193601126102745760206040517fdfd0ed111ddebe352bc97e5d0a28624138f4b703c09ec53a118956de59cd0fa38152f35b34610274576040366003190112610274576040611070612dac565b9161ffff61107c612999565b93168152600d602052209060018060a01b03166000526020526020604060002054604051908152f35b346102745780600319360112610274576040517f00000000000000000000000000000000000000000000000000000000000000006001600160e01b0319168152602090f35b34610274576101a0366003190112610274576004356001600160401b038111610a705761111b903690600401612949565b906024356001600160e01b031981169003610435576044356001600160401b038111610e605761114f903690600401612949565b90916064356001600160401b03811161089157611170903690600401612949565b90929060a4356001600160a01b03811690036109c55760c4356001600160e01b0319811690036109c55760e435926001600160a01b03841684036118a857610164356001600160401b0381116118a4576111ce903690600401612949565b93909561010435151590818092611893575b8015611873575b611849576101043561012435116118375761010435158061182f575b61157057611212602435615649565b916115fe575b8a91866113dc575b505a9461122c33615726565b9961123f60c435608435610104356156f6565b93625fe7f960e01b6001600160e01b031961125f4663ffffffff1661566a565b16036113d657808004600114811517156113c057945b61128760c435608435610124356156f6565b9661129a60c435608435610144356156f6565b986040519e8f9e8f92835261024080602085015283016112b991612ac7565b9180830390604001526112cb92613604565b7f00000000000000000000000000000000000000000000000000000000000000006001600160e01b03191660608e01528c810360808e015261130f92909190613604565b908a820360a08c015261132192613604565b9560843560c08a0152600160a01b6001900360a4351660e08a015263ffffffff60e01b60c435166101008a0152600160a01b60019003166101208901526101408801526101608701526101808601526101a085015263ffffffff60e01b602435166101c08501528382036101e085015261139a92613604565b61018435610200830152836102208301520360008051602061595883398151915291a180f35b634e487b7160e01b600052601160045260246000fd5b94611275565b915061141260019260206113ee612a7a565b6113f6612de9565b604051637af806df60e01b815294859283929060048401614168565b03817f00000000000000000000000000000000000000000000000000000000000000006001600160a01b03165afa9182156115f3578d926115b4575b50813b15611593578c91906001600160e01b03196114714663ffffffff1661566a565b16625fe7f960e01b14808061158b575b156114f55750506001600160a01b0381163b15610a70576040516358c88e0760e01b8152336004820152602481018590529082908290604490829084906001600160a01b03165af18015610886576114dd575b50505b8b611220565b6114e6906129f4565b6114f1578a8c6114d4565b8a80fd5b90919250159081611582575b5015611570578b906001600160a01b0381163b15610a70576040516337f3a8ed60e21b8152336004820152602481018590529082908290604490829084906001600160a01b03165af180156108865761155c575b50506114d7565b611565906129f4565b6114f1578a8c611555565b604051634d5499ab60e01b8152600490fd5b9050158d611501565b508115611481565b604051638c40da6160e01b81526001600160a01b0383166004820152602490fd5b9091506020813d82116115eb575b816115cf60209383612a3e565b810103126115e7576115e0906135f0565b908d61144e565b8c80fd5b3d91506115c2565b6040513d8f823e3d90fd5b604051637af806df60e01b81526020818061162b8d60c4359060a435908c898c6084359360048901613625565b03817f00000000000000000000000000000000000000000000000000000000000000006001600160a01b03165afa9081156117ae578c916117f6575b50803b156117d4578b9060a4356001600160a01b03908116908a161480806117cd575b156116ee57506001600160a01b0316803b15610a7057816040518092636e91340160e11b82528183816116c461010435336004840161384f565b03925af18015610886576116da575b5050611218565b6116e3906129f4565b6114f1578a8c6116d3565b806117c5575b1561172d576001600160a01b0316803b15610a70578160405180926358c88e0760e01b82528183816116c461010435336004840161384f565b90506001600160a01b0380821690891614806117bd575b15611570576001600160a01b0381163b156117b9578b60405180926337f3a8ed60e21b825281838161177d61010435336004840161384f565b03926001600160a01b03165af180156117ae5761179b575b50611218565b6117a7909b919b6129f4565b998b611795565b6040513d8e823e3d90fd5b8b80fd5b508215611744565b5083156116f4565b508461168a565b604051638c40da6160e01b81526001600160a01b039091166004820152602490fd5b90506020813d8211611827575b8161181060209383612a3e565b810103126117b957611821906135f0565b8c611667565b3d9150611803565b508515611203565b6040516339ddd98760e21b8152600490fd5b604051633d04c3cd60e11b81526101043560048201526001600160a01b0388166024820152604490fd5b506101043515610104356111e757506001600160a01b03871615156111e7565b506001600160a01b038716156111e0565b8880fd5b8780fd5b346102745780600319360112610274576040517f00000000000000000000000000000000000000000000000000000000000000006001600160a01b03168152602090f35b34610274578060031936011261027457602060405163ffffffff7f0000000000000000000000000000000000000000000000000000000000000000168152f35b34610274578060031936011261027457604051625fe7f960e01b8152602090f35b61195a36612be3565b600282541461197757611970906002835561386a565b6001815580f35b60405162461bcd60e51b815260206004820152601f60248201527f5265656e7472616e637947756172643a207265656e7472616e742063616c6c006044820152606490fd5b346102745780600319360112610274576040517f00000000000000000000000000000000000000000000000000000000000000006001600160a01b03168152602090f35b3461027457611a349060ff6040611a2261031536611a1d36612be3565b612c2f565b928381526006602052205416906141bd565b604080516001600160401b039384168152919092166020820152f35b3461027457602036600319011261027457600435906001600160401b038211610274576020611a856103153660048601612c2f565b604051908152f35b346102745760ff6040602092611aa961031536611a1d36612be3565b815260068452205416611abf6040518092612c15565bf35b346102745760c0366003190112610274576020611a8561059436612b56565b346102745760603660031901126102745760043563ffffffff9182821680920361027457611b0c612999565b90604435906001600160401b0382116102745750611b2e903690600401612b23565b6001600160a01b03939092907f00000000000000000000000000000000000000000000000000000000000000008581163303611c1457507f000000000000000000000000000000000000000000000000000000000000000016808203611bf65750507f00000000000000000000000000000000000000000000000000000000000000009280841690821603611bd857611bc682615027565b604051631dee306b60e11b8152602090f35b604051631601661d60e01b81529283925061034891600484016133af565b60449250604051916371a6259160e01b835260048301526024820152fd5b604051637090e53f60e01b81529081906103489033600484016133af565b3461027457806003193601126102745760206040517f6a80dfdddb63975bff5b24d8127123f7247094e5f027b8a7192f11950b53fa288152f35b346102745780600319360112610274576104e66104d2612a7a565b6060366003190112610274576001600160a01b0360043581811690818103610e6057602435600381101561213e576001600160401b0385604435828111610a7057611cd6903690600401612914565b9490877f00000000000000000000000000000000000000000000000000000000000000001691604051916327f843b560e11b83526020978884600481885afa938415610a6557869461210f575b50604051630ecce30160e31b80825294908a816004818a5afa9081156120495788916120da575b5060405163a2b753c760e01b81528b816004818b5afa9889156120ce5798612099575b5096611d8b611d9192611d859961ffff9a8b916143ba565b166143cd565b906143e0565b611dbd887f000000000000000000000000000000000000000000000000000000000000000016426143e0565b610e0f198201918211612085571161207357611dda9188846145a3565b156120545750859060046040518094819382525afa908115612049578891612014575b507f0000000000000000000000000000000000000000000000000000000000000000803403611ff657501691828752600b845260408720858852845260ff604088205416611e4a81612e08565b80611fcf575092869261086c959260037f6fd10f30cfab9f88f3ab98604755507ed88159095ce2102e483f2b4f441d6f149896600e5497611e9063ffffffff461661566a565b9360405199611e9e8b6129c3565b8a52868a019288845260408b019233845260608c0191611ebd81612e08565b825260808c01924216835260a08c019663ffffffff60e01b1687526040611ee38d612e75565b9b89815260098b528181208d82528b5220948c518655816001870191511660018060a01b0319825416179055600285019351168354915192611f2484612e08565b611f2d84612e08565b6001600160401b0360a81b905160a81b169260ff60a01b9060a01b169162ffffff60e81b16171717905501905160e01c63ffffffff19825416179055808852600a82526040882084895282526040882060ff1990600182825416179055818952600b835260408920848a528352600160408a20918254161790558752600d8152604087209187525260408520556001600e5401600e5560405191829182612e12565b604051632219ef3f60e21b81526044918990611fea81612e08565b60048301526024820152fd5b60449060405190630382b90560e01b82523460048301526024820152fd5b90508481813d8311612042575b61202b8183612a3e565b810103126118a85761203c90612ecf565b88611dfd565b503d612021565b6040513d8a823e3d90fd5b604051634e857b2d60e11b8152908190610348908890600484016133c9565b60405163061954d360e31b8152600490fd5b634e487b7160e01b8e52601160045260248efd5b97508a88813d83116120c7575b6120b08183612a3e565b810103126120c357965196611d8b611d6d565b8d80fd5b503d6120a6565b604051903d90823e3d90fd5b90508a81813d8311612108575b6120f18183612a3e565b810103126118a85761210290612ecf565b8e611d4a565b503d6120e7565b9093508881813d8311612137575b6121278183612a3e565b810103126108915751928c611d23565b503d61211d565b8480fd5b346102745780600319360112610274576040517f00000000000000000000000000000000000000000000000000000000000000006001600160a01b03168152602090f35b346102745780600319360112610274576020600e54604051908152f35b3461027457806003193601126102745760206040517f00000000000000000000000000000000000000000000000000000000000000008152f35b3461027457806003193601126102745760206040516001600160401b037f0000000000000000000000000000000000000000000000000000000000000000168152f35b34610274578060031936011261027457602060405163ffffffff7f0000000000000000000000000000000000000000000000000000000000000000168152f35b346102745760c03660031901126102745760ff604060209261ffff612283612fc7565b168152600a845281812061229961059436612b56565b82528452205416611abf6040518092612976565b346102745760c0366003190112610274576122ca61059436612b56565b604051630ecce30160e31b815260209081816004817f00000000000000000000000000000000000000000000000000000000000000006001600160a01b03165afa9081156124035784916123ce575b5061ffff80612326612fc7565b1691168110156123b657808452600a825260408420838552825260ff6040852054166006811015610fd7578015610a0257600181036109db57508352600a8152604083209183525260408120600460ff198254161790556123886106dc612f64565b7f9227da9e672fd9ca8466eea495cc4f2aa40cd8a778d98ed0dd5de98f97fe37256040518061086c81612ede565b602490604051906301ee2cc760e41b82526004820152fd5b90508181813d83116123fc575b6123e58183612a3e565b81010312610e60576123f690612ecf565b84612319565b503d6123db565b6040513d86823e3d90fd5b346102745780600319360112610274576040517f00000000000000000000000000000000000000000000000000000000000000006001600160a01b03168152602090f35b3461027457600319608036820112610a7057600435906001600160401b0390818311610e60576102809083600401933603011261043557602435916003831015610e605760443582811161213e576124ae903690600401612914565b936064358481116109c55761252995612521936124d2612530933690600401612949565b6124dd969196614271565b610c516124ed610315368b612c2f565b977f19457468657265756d205369676e6564204d6573736167653a0a3332000000008d5288601c52603c8d20923691612aec565b9890986133ed565b83886145a3565b156128f657604051630ecce30160e31b8152946020936001600160a01b039085886004817f000000000000000000000000000000000000000000000000000000000000000086165afa9788156128eb5789986128b4575b5061ffff8098168952600b86528160408a20931692838a528652600260ff60408b2054166125b481612e08565b146128a2576125c4903690612c2f565b958489526006865260ff60408a205416600481101561288e5760018103612870576125ef90866141bd565b908242169282168310156128475750506040519161260c83612a07565b83835286830191825261261e85612e08565b84156127fd575b61262e85612e08565b600185146127b3575b61264085612e08565b60028514612749575b50505061265582612e08565b7f33fe909c76b8ce2d80c623608e768bdb2c69f1d53f55d56d0e562a6e9c5672886040518581528061268987820189613260565b0390a384526005815260408420600281549160ff60018185160116908160ff19809516179055146126b8578480f35b7f0b9d0b9c6d9aae1efe690e3f8c347a95a78fc08968c2b0a2381e11799e82ecce93600f549060001981831601169061ffff191617600f55600682526003604086209182541617905561272a7f00000000000000000000000000000000000000000000000000000000000000006158c8565b61273e604051928284938452830190613260565b0390a1818080808480f35b858a52600487528060408b205416806127955750858a526004875260408a209251168254916001600160401b0360a01b905160a01b169163ffffffff60e01b1617179055878080612649565b886103488760405193849363c995afb960e01b855260048501614764565b858a52600387528060408b205416806127955750858a526003875260408a20818451168154906001600160401b0360a01b855160a01b169163ffffffff60e01b1617179055612637565b858a52600287528060408b205416806127955750858a526002875260408a20818451168154906001600160401b0360a01b855160a01b169163ffffffff60e01b1617179055612625565b604051639cc019e960e01b81526001600160401b03918216600482015291166024820152604490fd5b604051633b04512760e21b81526044916109f9906004830190612c15565b634e487b7160e01b8a52602160045260248afd5b604051632e8acb0d60e01b8152600490fd5b9097508581813d83116128e4575b6128cc8183612a3e565b810103126118a4576128dd90612ecf565b9689612587565b503d6128c2565b6040513d8b823e3d90fd5b604051634e857b2d60e11b81529081906103489087600484016133c9565b9181601f84011215612944578235916001600160401b038311612944576020808501948460051b01011161294457565b600080fd5b9181601f84011215612944578235916001600160401b038311612944576020838186019501011161294457565b9060068210156129835752565b634e487b7160e01b600052602160045260246000fd5b602435906001600160a01b038216820361294457565b35906001600160a01b038216820361294457565b60c081019081106001600160401b038211176129de57604052565b634e487b7160e01b600052604160045260246000fd5b6001600160401b0381116129de57604052565b604081019081106001600160401b038211176129de57604052565b61028081019081106001600160401b038211176129de57604052565b90601f801991011681019081106001600160401b038211176129de57604052565b6001600160401b0381116129de57601f01601f191660200190565b60405190612a8782612a07565b600e82526d2230b49029ba30b13632b1b7b4b760911b6020830152565b60005b838110612ab75750506000910152565b8181015183820152602001612aa7565b90602091612ae081518092818552858086019101612aa4565b601f01601f1916010190565b929192612af882612a5f565b91612b066040519384612a3e565b829481845281830111612944578281602093846000960137010152565b9080601f8301121561294457816020612b3e93359101612aec565b90565b35906001600160e01b03198216820361294457565b60c09060031901126129445760405190612b6f826129c3565b6004358252816001600160a01b036024358181168103612944576020830152604435908116810361294457604082015260643560038110156129445760608201526084356001600160401b038116810361294457608082015260a435906001600160e01b0319821682036129445760a00152565b6003199060208183011261294457600435916001600160401b0383116129445782610280920301126129445760040190565b9060048210156129835752565b3590811515820361294457565b919091610280818403126129445760405190612c4a82612a22565b8193813583526020820135602084015260408201356040840152606082013560608401526080820135608084015260a082013560a084015260c082013560c084015260e082013560e08401526101008083013590840152610120612caf8184016129af565b90840152610140612cc1818401612b41565b90840152610160612cd3818401612b41565b90840152610180612ce5818401612b41565b908401526101a0612cf7818401612b41565b908401526001600160401b036101c0838101358281116129445783612d1d918601612b23565b908501526101e0808401358281116129445783612d3b918601612b23565b90850152610200808401358281116129445783612d59918601612b23565b90850152610220808401358281116129445783612d77918601612b23565b90850152610240918284013591821161294457612d95918401612b23565b90830152612da7610260809201612c22565b910152565b6004359061ffff8216820361294457565b34612944576000366003190112612944576020612dd86131ad565b6001600160401b0360405191168152f35b60405190612df682612a07565b600382526244414960e81b6020830152565b6003111561298357565b91909160a060c082019380518352600180831b0380602083015116602085015260408201511660408401526060810151612e4b81612e08565b60608401526080818101516001600160401b0316908401528101516001600160e01b031916910152565b6000612eb0602092604051612e9f81612e918782019485612e12565b03601f198101835282612a3e565b604051928392839251928391612aa4565b8101039060025afa15612ec35760005190565b6040513d6000823e3d90fd5b519061ffff8216820361294457565b600435815260c0810191906001600160a01b0360243581811690819003612944576020830152604435908116809103612944576040820152606435600381101561294457612f2b81612e08565b60608201526084356001600160401b03811680910361294457608082015260a4359063ffffffff60e01b82168092036129445760a00152565b6044356001600160a01b03811681036129445790565b6024356001600160a01b03811681036129445790565b356001600160a01b03811681036129445790565b6084356001600160401b03811681036129445790565b919082039182116113c057565b6040516327f843b560e11b815260207f00000000000000000000000000000000000000000000000000000000000000006001600160a01b03168183600481845afa928315612ec3576000936130b2575b5090806004926040519384809263a2b753c760e01b82525afa908115612ec357600091613086575b509050608435906001600160401b0382168092036129445761306091612fba565b9080156130705761ffff91041690565b634e487b7160e01b600052601260045260246000fd5b82813d83116130ab575b61309a8183612a3e565b81010312610274575051803861303f565b503d613090565b90928282813d83116130da575b6130c98183612a3e565b810103126102745750519181613017565b503d6130bf565b60009080156131a95780806001146131a157600214613199576001918261013383101683600b841016176131835760028392935b8082116131445750508263ffffffff04821161313057500290565b634e487b7160e01b81526011600452602490fd5b90938063ffffffff04811161316f57818516613166575b800293811c90613115565b8093029261315b565b634e487b7160e01b83526011600452602483fd5b9291506002900a9163ffffffff83116131305750565b509060049150565b505050600190565b5090565b61ffff80600f54168015613234576131c4906130e1565b907f0000000000000000000000000000000000000000000000000000000000000000168063ffffffff809316028281169081036113c057827f000000000000000000000000000000000000000000000000000000000000000016018281116113c0578216038181116113c0571690565b505063ffffffff7f00000000000000000000000000000000000000000000000000000000000000001690565b90815181526020820151602082015260408201516040820152606082015160608201526080820151608082015260a082015160a082015260c082015160c082015260e082015160e0820152610100808301519082015261012060018060a01b0381840151169082015263ffffffff60e01b6101408181850151169083015261016081818501511690830152610180818185015116908301526101a09081840151169082015261337c61336861335461334061332c6101c080880151906102808091890152870190612ac7565b6101e0808801519087830390880152612ac7565b610200808701519086830390870152612ac7565b610220808601519085830390860152612ac7565b610240808501519084830390850152612ac7565b9161026080910151151591015290565b6000612eb0602092604051612e9f81612e91878201948886526040830190613260565b6001600160a01b0391821681529116602082015260400190565b6001600160a01b039091168152604081019291906020906133e983612e08565b0152565b600581101561298357806133fe5750565b600181036134465760405162461bcd60e51b815260206004820152601860248201527745434453413a20696e76616c6964207369676e617475726560401b6044820152606490fd5b600281036134935760405162461bcd60e51b815260206004820152601f60248201527f45434453413a20696e76616c6964207369676e6174757265206c656e677468006044820152606490fd5b60031461349c57565b60405162461bcd60e51b815260206004820152602260248201527f45434453413a20696e76616c6964207369676e6174757265202773272076616c604482015261756560f01b6064820152608490fd5b90604181511460001461351a57613516916020820151906060604084015193015160001a90613524565b9091565b5050600090600290565b9291906fa2a8918ca85bafe22016d0b997e4df60600160ff1b03831161359d5791608094939160ff602094604051948552168484015260408301526060820152600093849182805260015afa156135905781516001600160a01b0381161561358a579190565b50600190565b50604051903d90823e3d90fd5b50505050600090600390565b903590601e198136030182121561294457018035906001600160401b0382116129445760200191813603831361294457565b356001600160e01b0319811681036129445790565b51906001600160a01b038216820361294457565b908060209392818452848401376000828201840152601f01601f1916010190565b959290936136446080969998956136529460a08a5260a08a0191613604565b918783036020890152613604565b60408501969096526001600160a01b031660608401526001600160e01b031916910152565b3580151581036129445790565b9035601e19823603018112156129445701602081359101916001600160401b03821161294457813603831361294457565b6020815281356020820152602082013560408201526040820135606082015260608201356080820152608082013560a082015260a082013560c082015260c082013560e082015261384761379661376561378561375561377561010060e089013581890152610120908901358189015261373760018060a01b03918a016129af565b16610140908189015263ffffffff60e01b9485809481938c01612b41565b1661016090818b01528a01612b41565b1661018090818901528801612b41565b166101a090818701528601612b41565b166101c09081850152840184613684565b6138408461382e6138256138126138096137f56137ec6137d68d6137cd6102809d9c8e9c6101e09d8e8d01526102a08c0191613604565b9a810190613684565b601f19898c0381016102009a8b01529a91613604565b958c018c613684565b61022096918c888b82860301910152613604565b938a018a613684565b6102409491878b840301868c0152613604565b91880188613684565b90610260948884030185890152613604565b9401612c22565b151591015290565b6001600160a01b039091168152602081019190915260400190565b6138726143ed565b61387f6103153683612c2f565b6000818152600660205260ff604082205416600481101561411f5760018103612870576138ac90836141bd565b906001600160401b03808316904216106140f657505061392460206080856138d86102008201826135a9565b94906138e86102208401846135a9565b90916138f76101208601612f90565b916139056101a087016135db565b93604051998a988998637af806df60e01b8a5201359360048901613625565b03817f00000000000000000000000000000000000000000000000000000000000000006001600160a01b03165afa9081156108865782916140bc575b5060a084013581846001600160e01b03196139804663ffffffff1661566a565b166001600160e01b03197f00000000000000000000000000000000000000000000000000000000000000001614613e0b575b6139c19260e088013590614a41565b6139d96139d26101e08701876135a9565b3691612aec565b8390600290815b602a8310613c41575050506001600160a01b03169181613b19575b5050610240840190613a0d82866135a9565b9050613a56575b5050507f0dd9442ca0ceb76d843508ae85c58c2ef3742491a1cc480e4c0d1c96ab9965a691613a45613a51926149d2565b604051918291826136b5565b0390a1565b803b15613b0157613a84613a6d61014087016135db565b613a7b6101c08801886135a9565b929094886135a9565b843b156109c557869492613ade613acc9795938793604051998a9889978896632471e25d60e21b885263ffffffff60e01b166004880152606060248801526064870191613604565b84810360031901604486015291613604565b03925af1613aed575b80613a14565b613af782916129f4565b6102745780613ae7565b6024906040519063b5cf5b8f60e01b82526004820152fd5b6001600160a01b031690813b15610e6057604051630922733d60e41b8152848180613b4885886004840161384f565b038183875af18015613c3657613c23575b506001604087013516156139fb57613b7c613b776101a088016135db565b615649565b15613bdd57813b15610e6057613bac849283926040519485809481936304d2799360e51b8352896004840161384f565b03925af18015613bd257908391156139fb57613bc7906129f4565b610a705781386139fb565b6040513d85823e3d90fd5b613bea6101a087016135db565b613bf963ffffffff461661566a565b60405163fed5f6c360e01b81526001600160e01b0319928316600482015291166024820152604490fd5b613c2f909491946129f4565b9238613b59565b6040513d87823e3d90fd5b9192909190600881901b610100600160a01b0316906001600160a01b03168015908204610100141715613d1957613c788484615853565b5160f890811c9060018601808711613df757613c949086615853565b51901c6061918281101580613dec575b15613d9c57613cb290615896565b915b81101580613d91575b15613d4157613ccb90615896565b905b600481901b6010600160a01b0316906001600160a01b031680159082046010141715613d2d57613d079291613d01916158af565b906158af565b92818101809111613d195791906139e0565b634e487b7160e01b87526011600452602487fd5b634e487b7160e01b89526011600452602489fd5b604181101580613d86575b15613d6057613d5a9061587d565b90613ccd565b90603082101580613d7b575b15613ccd5790613d5a90615864565b506039821115613d6c565b506046811115613d4c565b506066811115613cbd565b604181101580613de1575b15613dbb57613db59061587d565b91613cb4565b91603083101580613dd6575b15613cb45791613db590615864565b506039831115613dc7565b506046811115613da7565b506066811115613ca4565b634e487b7160e01b8a52601160045260248afd5b50613e17915085614bcf565b846001600160e01b0319613e2e61018083016135db565b166001600160e01b03197f00000000000000000000000000000000000000000000000000000000000000001614158061409d575b613e6e575081846139b2565b9390828260e0879695960135613e8393614a41565b90613e8d906149d2565b5a92613e9d6101c08601866135a9565b60805260e052613eb16101e08601866135a9565b9490613ec061018088016135db565b613ece6102008901896135a9565b91613edd6102208b018b6135a9565b9390946101208c01613eee90612f90565b9a613efc6101a08e016135db565b97613f0b6102408f018f6135a9565b9e9060c05261026001613f1d90613677565b60a05260405180610100525261010051602001610240905261010051610240016080519060e05191613f4e92613604565b90610100518083039060400152613f6492613604565b9163ffffffff60e01b166101005160600152610100518083039060800152613f8b92613604565b90610100518083039060a00152613fa192613604565b9460808801356101005160c00152600160a01b60019003166101005160e0015263ffffffff60e01b16610100516101000152600160a01b60019003166101005161012001526101005161014001528061010051610160015280610100516101800152610100840135610100516101a00152610100516101c0015261010051808203906101e0015260c0519161403592613604565b604082013561010051610200015260a05115156101005161022001526101005180910360008051602061595883398151915291a16040516140778192826136b5565b037f0dd9442ca0ceb76d843508ae85c58c2ef3742491a1cc480e4c0d1c96ab9965a691a1565b506001600160e01b03196140b461018083016135db565b161515613e62565b90506020813d6020116140ee575b816140d760209383612a3e565b81010312610a70576140e8906135f0565b38613960565b3d91506140ca565b6040516345bbd2a360e11b81526001600160401b03918216600482015291166024820152604490fd5b634e487b7160e01b82526021600452602482fd5b90620697806001600160401b03809316019182116113c057565b9190916001600160401b03808094169116019182116113c057565b929161417f61418d9260a0865260a0860190612ac7565b908482036020860152612ac7565b9160126040820152736b175474e89094c44da98b954eedeac495271d0f60608201526080625fe7f960e01b910152565b91906004811015612983576001036142695760009180835260016020526001600160401b03604084205460a01c16906141fd6141f76131ad565b8361414d565b93818152600560205260ff6040822054161561426357600360205260408120546001600160a01b039290831661424d575b81526004602052604090205416614243579190565b91612b3e90614133565b949061425a604092614133565b9590915061422e565b50509190565b600091508190565b60408051630ecce30160e31b815260209081816004817f00000000000000000000000000000000000000000000000000000000000000006001600160a01b03165afa9081156143af5760009161437a575b5061ffff809116908160005260078352836000205415928315614341575b8315614301575b5050506142f15750565b51639ceba7c560e01b8152600490fd5b9091809350600052600c815283600020600260005281528184600020541692600052600881528360002090600260005252826000205416143880806142e7565b9250600c8352836000206001600052835280846000205416826000526008845284600020600160005284528185600020541614926142e0565b908282813d83116143a8575b6143908183612a3e565b8101031261027457506143a290612ecf565b386142c2565b503d614386565b83513d6000823e3d90fd5b90600161ffff809316019182116113c057565b818102929181159184041417156113c057565b919082018092116113c057565b6143f5614271565b60408051630ecce30160e31b815260207f00000000000000000000000000000000000000000000000000000000000000006001600160a01b03168183600481845afa92831561459857600093614561575b5083516327f843b560e11b8152908282600481845afa9182156145235790839160009361452e575b50855163a2b753c760e01b81529190829060049082905afa928315614523576000936144f0575b5050611d8b9061ffff611d856144aa956143ba565b6144da63ffffffff7f000000000000000000000000000000000000000000000000000000000000000016426143e0565b610e0f1982019182116113c05710156142f15750565b8181949293943d831161451c575b6145088183612a3e565b81010312610274575051908061ffff614495565b503d6144fe565b85513d6000823e3d90fd5b9182819492943d831161455a575b6145468183612a3e565b81010312610274575051908290600461446e565b503d61453c565b90928282813d8311614591575b6145788183612a3e565b81010312610274575061458a90612ecf565b9138614446565b503d61456e565b84513d6000823e3d90fd5b60408051630ecce30160e31b815292956004959194909360209390848189817f00000000000000000000000000000000000000000000000000000000000000006001600160a01b03165afa801561475957600090614723575b61ffff91501660005260078452856000205497865190858201926bffffffffffffffffffffffff199060601b16835261463481612e08565b60f81b60348201526015815261464981612a07565b5190206001600160401b03831161470e5760059183831b87519461466f87830187612a3e565b855285850190820191368311612944578690915b8383106146fe5750505050936000945b83518610156146f15785831b840185015190876000838310156146e45750506000528452856000205b9460001981146146cf5760010194614693565b601188634e487b7160e01b6000525260246000fd5b91909282528652206146bc565b9550969550505050501490565b8235815291810191879101614683565b604187634e487b7160e01b6000525260246000fd5b8582813d8311614752575b6147388183612a3e565b81010312610274575061474d61ffff91612ecf565b6145fc565b503d61472e565b87513d6000823e3d90fd5b61477c60409295949395606083526060830190613260565b6001600160a01b0390951660208201526133e983612e08565b9060008181526020916006835260409460ff868420541660048110156149be57600181036149a1576147c790836141bd565b6001600160401b03918242169282168310156149795750508651906147eb82612a07565b6001600160a01b0392831680835286830191825284865260028752888620549093908116806149465750848652600287528886209251835492516001600160e01b031990931691161760a09190911b67ffffffffffffffff60a01b1617905585518481528391907f33fe909c76b8ce2d80c623608e768bdb2c69f1d53f55d56d0e562a6e9c56728890806148818189018a613260565b0390a381526005825283812093600285549560ff60018189160116908160ff19809916179055146148b4575b5050505050565b7f0b9d0b9c6d9aae1efe690e3f8c347a95a78fc08968c2b0a2381e11799e82ecce9460038261493994600f5461ffff60001981831601169061ffff191617600f5560068752209182541617905561492a7f00000000000000000000000000000000000000000000000000000000000000006158c8565b51928284938452830190613260565b0390a138808080806148ad565b895163c995afb960e01b8152606060048201529081908861496a606484018d613260565b91602484015260448301520390fd5b8851639cc019e960e01b81526001600160401b03918216600482015291166024820152604490fd5b8651633b04512760e21b81526044916109f9906004830190612c15565b634e487b7160e01b84526021600452602484fd5b60005260066020526040600020600260ff198254161790556001602052614a2760018060a01b03604060002054167f00000000000000000000000000000000000000000000000000000000000000009061591a565b600f5461ffff60001981831601169061ffff191617600f55565b909193926000948315614bba57855260016020526040808620546001600160a01b0390811692338414614b5357610e74860291610e731987840401613d2d5761189c87029161189b1988840401613df757899392911690813b15610e60578451848180614ac3630922733d60e41b9a8b8352612710809904906004840161384f565b038183875af18015614b4957908591614b35575b5050813b15610e605783614afb96865197889586948593845204336004840161384f565b03925af1908115614b2c5750614b18575b50612b3e929350612fba565b614b2285916129f4565b610e605783614b0c565b513d87823e3d90fd5b614b3e906129f4565b610e60578338614ad7565b86513d87823e3d90fd5b969291961690813b156104355784614b83928492838a51809681958294630922733d60e41b84526004840161384f565b03925af1958615614baf5750612b3e9495614ba0575b5050612fba565b614ba9906129f4565b38614b99565b51913d9150823e3d90fd5b509093505050565b5190811515820361294457565b919091614bdf6102608201613677565b614f8b57600092839160a08101359182158015614e00575b5050614c076102408201826135a9565b9050614c195750612b3e929350612fba565b614c4f9085614c26612a7a565b91614c2f612de9565b60408051637af806df60e01b815295909460209287929160048401614168565b6001600160a01b039291829188919003817f000000000000000000000000000000000000000000000000000000000000000086165afa958615614df6578496614dbf575b5060c082871693013592803b1561213e578551630922733d60e41b8152858180614cc188306004840161384f565b038183865af18015614da157908691614dab575b50507f000000000000000000000000000000000000000000000000000000000000000091808751809363095ea7b360e01b8252818981614d198b8a6004840161384f565b03925af18015614da157614d6d575b505016803b1561043557614d5294838551809781958294631dc1a8e960e11b84526004840161384f565b03925af1908115614b2c575015614b0c57614b2285916129f4565b81813d8311614d9a575b614d818183612a3e565b8101031261213e57614d9290614bc2565b503880614d28565b503d614d77565b87513d88823e3d90fd5b614db4906129f4565b61213e578438614cd5565b9080965081813d8311614def575b614dd78183612a3e565b81010312610e6057614de8906135f0565b9438614c93565b503d614dcd565b85513d86823e3d90fd5b90935060148302908382046014141715614f77576127109004926001600160a01b0380821690813b156118a8576040918251630922733d60e41b8152898180614e4d8b306004840161384f565b038183865af18015614f6d57614f54575b50825163095ea7b360e01b815289949392917f000000000000000000000000000000000000000000000000000000000000000091906020908290818981614ea98f896004840161384f565b03925af18015614f4a57614f12575b5016803b15610e6057868491614ee494838551809781958294631dc1a8e960e11b84526004840161384f565b03925af1908115614f09575015614bf757614efe906129f4565b61213e578438614bf7565b513d84823e3d90fd5b6020813d8211614f42575b81614f2a60209383612a3e565b8101031261089157614f3b90614bc2565b5038614eb8565b3d9150614f1d565b84513d88823e3d90fd5b614f63909991949392996129f4565b9790919238614e5e565b84513d8c823e3d90fd5b634e487b7160e01b86526011600452602486fd5b5060009150565b81601f82011215612944578051614fa881612a5f565b92614fb66040519485612a3e565b8184526020828401011161294457612b3e9160208085019101612aa4565b9081606091031261294457614fe881612ecf565b60208201519092906001600160a01b03811681036129445760409092015160038110156129445790565b51906001600160e01b03198216820361294457565b908151820190604090818484031261294457602092838501519083860151906001600160401b0391828111612944578680615066930191890101614f92565b917ffb3a8bb4934bcbebc9f9b183a5565b2fa1cc00339b02609d9034c675ac840dc681146155be577f6a80dfdddb63975bff5b24d8127123f7247094e5f027b8a7192f11950b53fa2881146153b5577fdfd0ed111ddebe352bc97e5d0a28624138f4b703c09ec53a118956de59cd0fa381146152df577fd4d8222d0ae53ebfbdd08d62806506cb5c9c154d8bcaffc3f89830e9f18223b01461512657505050610348905192839263295c2ddb60e21b845260048401526024830190612ac7565b91945092835184018181019482818303126129445782810151908482116129445701809161028092839103126129445784519461516286612a22565b83820151865280820151848701526060820151908601526080810151606086015260a0810151608086015260c081015160a086015260e081015160c08601526101008082015160e0870152610120908183015190870152610140906151c88284016135f0565b90870152610160906151db828401615012565b90870152610180906151ee828401615012565b908701526101a090615201828401615012565b908701526101c090615214828401615012565b908701526101e0908183015186811161294457888661523592860101614f92565b90870152610200908183015186811161294457888661525692860101614f92565b90870152610220908183015186811161294457888661527792860101614f92565b90870152610240908183015186811161294457888661529892860101614f92565b908701526102609485830151908111612944576152dd976152c9956152bf92850101614f92565b9086015201614bc2565b908201526152d68161338c565b3091614795565b565b50506152f8919450838082959495518301019101614fd4565b919060018060a01b03169361ffff80921693600092858452600b82528284208785528252600260ff848620541661532e81612e08565b1461533d575b50505050505050565b858452600c82528284207f063638349cad15dbc9dcb13925d267f0872d06990013fc93379b91f62b907f3f9561537281612e08565b855282528284209081549060001981831601169061ffff1916179055848352600b81528183209086845252812060ff19815416905580a338808080808080615334565b509194508084806153ce93969596518301019101614fd4565b929194909360018060a01b038095169561ffff80911695600094878652600d845284862089875284528486205491826154ac575b505050858452600b8252828420878552825260ff838520541661542481612e08565b156154325750505050505050565b858452600c82528284207f3d78448e3086a8762725bddb010d91cb9ab2ae6f79981de8abc8dc36aff2fd099561546781612e08565b8552825282842090815490600181831601169061ffff1916179055848352600b815281832090868452528120600260ff1982541617905580a338808080808080615334565b7fb85e71ec9b2bec35b265dbb5a070eb4368c8b60af41d9795cbff134e275e256a9260c0928a895260098752878920828a528752878920918b8a52600d8852888a208d8b52885289898120558b8a52600a8852888a20908a5287528789209260ff19936005858254161790558b8a52600b8852888a20936001840194828654168c528952898b209081541690556002830161556b828254167f00000000000000000000000000000000000000000000000000000000000000009061591a565b818a519585548752541689860152549081168985015260ff8160a01c1661559181612e08565b606085015260a81c1660808301526003015460e01b6001600160e01b03191660a0820152a1388080615402565b50509291909350608083805181010312612944576155dd828401612ecf565b906155e9818501612ecf565b9260806155f860608701612ecf565b9501519061ffff8094166000928184526007835284842055600882528383206001845282528383208561ffff1997168782541617905582526008815282822090600283525220921690825416179055565b61565863ffffffff461661566a565b6001600160e01b031990811691161490565b6040519063ffffffff6020830191600160f81b80845260408501521660608301526000918260808201526080815260a08101918183106001600160401b038411176156e257918391816156c7602095826040528351928391612aa4565b8101039060025afa156120ce57516001600160e01b03191690565b634e487b7160e01b84526041600452602484fd5b9161570090615649565b156131a95760120390601282116113c057604d82116113c057612b3e91600a0a906143cd565b604051906001600160a01b0316606082016001600160401b038111838210176129de57604052602a825260208201604036823782511561583d5760309053815160019081101561583d57607860218401536029905b8082116157cf57505061578b5790565b606460405162461bcd60e51b815260206004820152602060248201527f537472696e67733a20686578206c656e67746820696e73756666696369656e746044820152fd5b9091600f81166010811015615828576f181899199a1a9b1b9c1cb0b131b232b360811b901a6157fe8486615853565b5360041c91801561581357600019019061577b565b60246000634e487b7160e01b81526011600452fd5b60246000634e487b7160e01b81526032600452fd5b634e487b7160e01b600052603260045260246000fd5b90815181101561583d570160200190565b6001600160a01b03908116602f1901919082116113c057565b6001600160a01b0390811660361901919082116113c057565b6001600160a01b0390811660561901919082116113c057565b6001600160a01b0391821690821601919082116113c057565b60008080808094815af1903d15615914573d906158e482612a5f565b916158f26040519384612a3e565b825260203d92013e5b1561590257565b604051633204506f60e01b8152600490fd5b506158fb565b600080809381935af13d15615952573d61593381612a5f565b906159416040519283612a3e565b8152600060203d92013e1561590257565b6158fb56fe71d1a48fb10648c4ca31c3abd9a916f0f6545176b2387214ed134a71c924e79fa2646970667358221220403535a4cb1f8646c7570d95bdea2c76918b3bede9c9daceb28deef1b810214e64736f6c63430008130033",
  "linkReferences": {},
  "deployedLinkReferences": {}
}